{"project/contracts/PredictionMarket.sol":{"PredictionMarket":{"abi":[{"inputs":[],"stateMutability":"nonpayable","type":"constructor"},{"anonymous":false,"inputs":[{"indexed":true,"internalType":"uint256","name":"marketId","type":"uint256"},{"indexed":false,"internalType":"string","name":"question","type":"string"},{"indexed":false,"internalType":"string[]","name":"options","type":"string[]"},{"indexed":false,"internalType":"uint256","name":"deadline","type":"uint256"}],"name":"MarketCreated","type":"event"},{"anonymous":false,"inputs":[{"indexed":true,"internalType":"uint256","name":"marketId","type":"uint256"},{"indexed":false,"internalType":"uint8","name":"winningOption","type":"uint8"}],"name":"MarketResolved","type":"event"},{"anonymous":false,"inputs":[{"indexed":true,"internalType":"uint256","name":"marketId","type":"uint256"},{"indexed":true,"internalType":"address","name":"claimer","type":"address"},{"indexed":false,"internalType":"uint256","name":"amount","type":"uint256"}],"name":"RewardClaimed","type":"event"},{"anonymous":false,"inputs":[{"indexed":true,"internalType":"uint256","name":"marketId","type":"uint256"},{"indexed":false,"internalType":"uint8","name":"optionIndex","type":"uint8"},{"indexed":true,"internalType":"address","name":"voter","type":"address"},{"indexed":false,"internalType":"uint256","name":"amount","type":"uint256"}],"name":"Voted","type":"event"},{"inputs":[{"internalType":"uint256","name":"marketId","type":"uint256"}],"name":"claimReward","outputs":[],"stateMutability":"nonpayable","type":"function"},{"inputs":[{"internalType":"uint256","name":"","type":"uint256"},{"internalType":"address","name":"","type":"address"}],"name":"claimed","outputs":[{"internalType":"bool","name":"","type":"bool"}],"stateMutability":"view","type":"function"},{"inputs":[{"internalType":"string","name":"question","type":"string"},{"internalType":"string[]","name":"options","type":"string[]"},{"internalType":"uint256","name":"deadline","type":"uint256"}],"name":"createMarket","outputs":[{"internalType":"uint256","name":"","type":"uint256"}],"stateMutability":"nonpayable","type":"function"},{"inputs":[{"internalType":"uint256","name":"marketId","type":"uint256"}],"name":"getMarket","outputs":[{"internalType":"string","name":"question","type":"string"},{"internalType":"string[]","name":"options","type":"string[]"},{"internalType":"uint256","name":"deadline","type":"uint256"},{"internalType":"bool","name":"resolved","type":"bool"},{"internalType":"uint8","name":"winningOption","type":"uint8"},{"internalType":"uint256","name":"totalPool","type":"uint256"}],"stateMutability":"view","type":"function"},{"inputs":[{"internalType":"uint256","name":"marketId","type":"uint256"},{"internalType":"uint8","name":"optionIndex","type":"uint8"}],"name":"getOptionTotal","outputs":[{"internalType":"uint256","name":"","type":"uint256"}],"stateMutability":"view","type":"function"},{"inputs":[{"internalType":"uint256","name":"marketId","type":"uint256"},{"internalType":"uint8","name":"optionIndex","type":"uint8"},{"internalType":"address","name":"user","type":"address"}],"name":"getUserStake","outputs":[{"internalType":"uint256","name":"","type":"uint256"}],"stateMutability":"view","type":"function"},{"inputs":[{"internalType":"uint256","name":"marketId","type":"uint256"},{"internalType":"address","name":"user","type":"address"}],"name":"hasUserClaimed","outputs":[{"internalType":"bool","name":"","type":"bool"}],"stateMutability":"view","type":"function"},{"inputs":[],"name":"marketCount","outputs":[{"internalType":"uint256","name":"","type":"uint256"}],"stateMutability":"view","type":"function"},{"inputs":[{"internalType":"uint256","name":"","type":"uint256"}],"name":"markets","outputs":[{"internalType":"string","name":"question","type":"string"},{"internalType":"uint256","name":"deadline","type":"uint256"},{"internalType":"bool","name":"resolved","type":"bool"},{"internalType":"uint8","name":"winningOption","type":"uint8"},{"internalType":"uint256","name":"totalPool","type":"uint256"},{"internalType":"bool","name":"exists","type":"bool"}],"stateMutability":"view","type":"function"},{"inputs":[{"internalType":"uint256","name":"","type":"uint256"},{"internalType":"uint8","name":"","type":"uint8"}],"name":"optionTotals","outputs":[{"internalType":"uint256","name":"","type":"uint256"}],"stateMutability":"view","type":"function"},{"inputs":[],"name":"owner","outputs":[{"internalType":"address","name":"","type":"address"}],"stateMutability":"view","type":"function"},{"inputs":[{"internalType":"uint256","name":"marketId","type":"uint256"},{"internalType":"uint8","name":"winningOption","type":"uint8"}],"name":"resolveMarket","outputs":[],"stateMutability":"nonpayable","type":"function"},{"inputs":[{"internalType":"uint256","name":"","type":"uint256"},{"internalType":"uint8","name":"","type":"uint8"},{"internalType":"address","name":"","type":"address"}],"name":"stakes","outputs":[{"internalType":"uint256","name":"","type":"uint256"}],"stateMutability":"view","type":"function"},{"inputs":[{"internalType":"uint256","name":"marketId","type":"uint256"},{"internalType":"uint8","name":"optionIndex","type":"uint8"}],"name":"vote","outputs":[],"stateMutability":"payable","type":"function"}],"evm":{"bytecode":{"linkReferences":{},"object":"608060405234801561000f575f80fd5b50335f806101000a81548173ffffffffffffffffffffffffffffffffffffffff021916908373ffffffffffffffffffffffffffffffffffffffff1602179055506126728061005c5f395ff3fe6080604052600436106100dc575f3560e01c8063943e82161161007e578063df55406e11610058578063df55406e146102f7578063eb44fdd31461031f578063ec97908214610360578063fbc529cb1461038a576100dc565b8063943e821614610272578063ae169a501461028e578063b1283e77146102b6576100dc565b806326139735116100ba578063261397351461019457806329108ee0146101d05780632ec6a9ca1461020c5780638da5cb5b14610248576100dc565b80630436ee33146100e057806307c7a72d1461011c578063120aa87714610158575b5f80fd5b3480156100eb575f80fd5b50610106600480360381019061010191906113ea565b6103c6565b6040516101139190611437565b60405180910390f35b348015610127575f80fd5b50610142600480360381019061013d91906114aa565b6103e6565b60405161014f9190611502565b60405180910390f35b348015610163575f80fd5b5061017e600480360381019061017991906114aa565b610448565b60405161018b9190611502565b60405180910390f35b34801561019f575f80fd5b506101ba60048036038101906101b591906113ea565b610472565b6040516101c79190611437565b60405180910390f35b3480156101db575f80fd5b506101f660048036038101906101f1919061151b565b6104a2565b6040516102039190611437565b60405180910390f35b348015610217575f80fd5b50610232600480360381019061022d919061151b565b61050e565b60405161023f9190611437565b60405180910390f35b348015610253575f80fd5b5061025c610539565b604051610269919061157a565b60405180910390f35b61028c600480360381019061028791906113ea565b61055c565b005b348015610299575f80fd5b506102b460048036038101906102af9190611593565b61081a565b005b3480156102c1575f80fd5b506102dc60048036038101906102d79190611593565b610be1565b6040516102ee96959493929190611657565b60405180910390f35b348015610302575f80fd5b5061031d600480360381019061031891906113ea565b610cc4565b005b34801561032a575f80fd5b5061034560048036038101906103409190611593565b610eda565b604051610357969594939291906117c0565b60405180910390f35b34801561036b575f80fd5b506103746110f9565b6040516103819190611437565b60405180910390f35b348015610395575f80fd5b506103b060048036038101906103ab91906118e3565b6110ff565b6040516103bd9190611437565b60405180910390f35b6004602052815f5260405f20602052805f5260405f205f91509150505481565b5f60055f8481526020019081526020015f205f8373ffffffffffffffffffffffffffffffffffffffff1673ffffffffffffffffffffffffffffffffffffffff1681526020019081526020015f205f9054906101000a900460ff16905092915050565b6005602052815f5260405f20602052805f5260405f205f915091509054906101000a900460ff1681565b5f60045f8481526020019081526020015f205f8360ff1660ff1681526020019081526020015f2054905092915050565b5f60035f8581526020019081526020015f205f8460ff1660ff1681526020019081526020015f205f8373ffffffffffffffffffffffffffffffffffffffff1673ffffffffffffffffffffffffffffffffffffffff1681526020019081526020015f205490509392505050565b6003602052825f5260405f20602052815f5260405f20602052805f5260405f205f9250925050505481565b5f8054906101000a900473ffffffffffffffffffffffffffffffffffffffff1681565b8160025f8281526020019081526020015f206005015f9054906101000a900460ff166105bd576040517f08c379a00000000000000000000000000000000000000000000000000000000081526004016105b4906119be565b60405180910390fd5b5f60025f8581526020019081526020015f209050806003015f9054906101000a900460ff1615610622576040517f08c379a000000000000000000000000000000000000000000000000000000000815260040161061990611a26565b60405180910390fd5b80600201544210610668576040517f08c379a000000000000000000000000000000000000000000000000000000000815260040161065f90611a8e565b60405180910390fd5b80600101805490508360ff16106106b4576040517f08c379a00000000000000000000000000000000000000000000000000000000081526004016106ab90611af6565b60405180910390fd5b5f34116106f6576040517f08c379a00000000000000000000000000000000000000000000000000000000081526004016106ed90611b5e565b60405180910390fd5b3460035f8681526020019081526020015f205f8560ff1660ff1681526020019081526020015f205f3373ffffffffffffffffffffffffffffffffffffffff1673ffffffffffffffffffffffffffffffffffffffff1681526020019081526020015f205f8282546107669190611ba9565b925050819055503460045f8681526020019081526020015f205f8560ff1660ff1681526020019081526020015f205f8282546107a29190611ba9565b9250508190555034816004015f8282546107bc9190611ba9565b925050819055503373ffffffffffffffffffffffffffffffffffffffff16847f3f9b9f159c5a4c91eba505978461ab7e174c724bc65614347ad4b10042c4cf77853460405161080c929190611bdc565b60405180910390a350505050565b8060025f8281526020019081526020015f206005015f9054906101000a900460ff1661087b576040517f08c379a0000000000000000000000000000000000000000000000000000000008152600401610872906119be565b60405180910390fd5b5f60025f8481526020019081526020015f209050806003015f9054906101000a900460ff166108df576040517f08c379a00000000000000000000000000000000000000000000000000000000081526004016108d690611c4d565b60405180910390fd5b60055f8481526020019081526020015f205f3373ffffffffffffffffffffffffffffffffffffffff1673ffffffffffffffffffffffffffffffffffffffff1681526020019081526020015f205f9054906101000a900460ff1615610978576040517f08c379a000000000000000000000000000000000000000000000000000000000815260040161096f90611cb5565b60405180910390fd5b5f8160030160019054906101000a900460ff1690505f60035f8681526020019081526020015f205f8360ff1660ff1681526020019081526020015f205f3373ffffffffffffffffffffffffffffffffffffffff1673ffffffffffffffffffffffffffffffffffffffff1681526020019081526020015f205490505f8111610a34576040517f08c379a0000000000000000000000000000000000000000000000000000000008152600401610a2b90611d1d565b60405180910390fd5b600160055f8781526020019081526020015f205f3373ffffffffffffffffffffffffffffffffffffffff1673ffffffffffffffffffffffffffffffffffffffff1681526020019081526020015f205f6101000a81548160ff0219169083151502179055505f60045f8781526020019081526020015f205f8460ff1660ff1681526020019081526020015f205490505f81838660040154610ad49190611d3b565b610ade9190611da9565b90505f3373ffffffffffffffffffffffffffffffffffffffff1682604051610b0590611e06565b5f6040518083038185875af1925050503d805f8114610b3f576040519150601f19603f3d011682016040523d82523d5f602084013e610b44565b606091505b5050905080610b88576040517f08c379a0000000000000000000000000000000000000000000000000000000008152600401610b7f90611e64565b60405180910390fd5b3373ffffffffffffffffffffffffffffffffffffffff16887f24b5efa61dd1cfc659205a97fb8ed868f3cb8c81922bab2b96423e5de1de2cb784604051610bcf9190611437565b60405180910390a35050505050505050565b6002602052805f5260405f205f91509050805f018054610c0090611eaf565b80601f0160208091040260200160405190810160405280929190818152602001828054610c2c90611eaf565b8015610c775780601f10610c4e57610100808354040283529160200191610c77565b820191905f5260205f20905b815481529060010190602001808311610c5a57829003601f168201915b505050505090806002015490806003015f9054906101000a900460ff16908060030160019054906101000a900460ff1690806004015490806005015f9054906101000a900460ff16905086565b5f8054906101000a900473ffffffffffffffffffffffffffffffffffffffff1673ffffffffffffffffffffffffffffffffffffffff163373ffffffffffffffffffffffffffffffffffffffff1614610d51576040517f08c379a0000000000000000000000000000000000000000000000000000000008152600401610d4890611f29565b60405180910390fd5b8160025f8281526020019081526020015f206005015f9054906101000a900460ff16610db2576040517f08c379a0000000000000000000000000000000000000000000000000000000008152600401610da9906119be565b60405180910390fd5b5f60025f8581526020019081526020015f209050806003015f9054906101000a900460ff1615610e17576040517f08c379a0000000000000000000000000000000000000000000000000000000008152600401610e0e90611f91565b60405180910390fd5b80600101805490508360ff1610610e63576040517f08c379a0000000000000000000000000000000000000000000000000000000008152600401610e5a90611ff9565b60405180910390fd5b6001816003015f6101000a81548160ff021916908315150217905550828160030160016101000a81548160ff021916908360ff160217905550837f739f283563fb51ab6b89ee95d937b2e63a6cfcb83c385dbebb629f9d97bd43e684604051610ecc9190612017565b60405180910390a250505050565b6060805f805f808660025f8281526020019081526020015f206005015f9054906101000a900460ff16610f42576040517f08c379a0000000000000000000000000000000000000000000000000000000008152600401610f39906119be565b60405180910390fd5b5f60025f8a81526020019081526020015f209050805f01816001018260020154836003015f9054906101000a900460ff168460030160019054906101000a900460ff168560040154858054610f9690611eaf565b80601f0160208091040260200160405190810160405280929190818152602001828054610fc290611eaf565b801561100d5780601f10610fe45761010080835404028352916020019161100d565b820191905f5260205f20905b815481529060010190602001808311610ff057829003601f168201915b5050505050955084805480602002602001604051908101604052809291908181526020015f905b828210156110dc578382905f5260205f2001805461105190611eaf565b80601f016020809104026020016040519081016040528092919081815260200182805461107d90611eaf565b80156110c85780601f1061109f576101008083540402835291602001916110c8565b820191905f5260205f20905b8154815290600101906020018083116110ab57829003601f168201915b505050505081526020019060010190611034565b505050509450975097509750975097509750505091939550919395565b60015481565b5f805f9054906101000a900473ffffffffffffffffffffffffffffffffffffffff1673ffffffffffffffffffffffffffffffffffffffff163373ffffffffffffffffffffffffffffffffffffffff161461118e576040517f08c379a000000000000000000000000000000000000000000000000000000000815260040161118590611f29565b60405180910390fd5b600284849050101580156111a65750600a8484905011155b6111e5576040517f08c379a00000000000000000000000000000000000000000000000000000000081526004016111dc9061207a565b60405180910390fd5b428211611227576040517f08c379a000000000000000000000000000000000000000000000000000000000815260040161121e906120e2565b60405180910390fd5b5f60015f81548092919061123a90612100565b9190505590505f60025f8381526020019081526020015f2090508787825f01918261126692919061231b565b508381600201819055505f816003015f6101000a81548160ff0219169083151502179055505f81600401819055506001816005015f6101000a81548160ff0219169083151502179055505f5b8686905081101561132a57816001018787838181106112d4576112d36123e8565b5b90506020028101906112e69190612421565b90918060018154018082558091505060019003905f5260205f20015f90919290919290919290919250918261131c92919061231b565b5080806001019150506112b2565b50817fdb6ae5c511cd814e8b6d7dd1f64d32f3bd488e4361486cdcfa2e2debaeddca8789898989896040516113639594939291906125f5565b60405180910390a2819250505095945050505050565b5f80fd5b5f80fd5b5f819050919050565b61139381611381565b811461139d575f80fd5b50565b5f813590506113ae8161138a565b92915050565b5f60ff82169050919050565b6113c9816113b4565b81146113d3575f80fd5b50565b5f813590506113e4816113c0565b92915050565b5f8060408385031215611400576113ff611379565b5b5f61140d858286016113a0565b925050602061141e858286016113d6565b9150509250929050565b61143181611381565b82525050565b5f60208201905061144a5f830184611428565b92915050565b5f73ffffffffffffffffffffffffffffffffffffffff82169050919050565b5f61147982611450565b9050919050565b6114898161146f565b8114611493575f80fd5b50565b5f813590506114a481611480565b92915050565b5f80604083850312156114c0576114bf611379565b5b5f6114cd858286016113a0565b92505060206114de85828601611496565b9150509250929050565b5f8115159050919050565b6114fc816114e8565b82525050565b5f6020820190506115155f8301846114f3565b92915050565b5f805f6060848603121561153257611531611379565b5b5f61153f868287016113a0565b9350506020611550868287016113d6565b925050604061156186828701611496565b9150509250925092565b6115748161146f565b82525050565b5f60208201905061158d5f83018461156b565b92915050565b5f602082840312156115a8576115a7611379565b5b5f6115b5848285016113a0565b91505092915050565b5f81519050919050565b5f82825260208201905092915050565b5f5b838110156115f55780820151818401526020810190506115da565b5f8484015250505050565b5f601f19601f8301169050919050565b5f61161a826115be565b61162481856115c8565b93506116348185602086016115d8565b61163d81611600565b840191505092915050565b611651816113b4565b82525050565b5f60c0820190508181035f83015261166f8189611610565b905061167e6020830188611428565b61168b60408301876114f3565b6116986060830186611648565b6116a56080830185611428565b6116b260a08301846114f3565b979650505050505050565b5f81519050919050565b5f82825260208201905092915050565b5f819050602082019050919050565b5f82825260208201905092915050565b5f611700826115be565b61170a81856116e6565b935061171a8185602086016115d8565b61172381611600565b840191505092915050565b5f61173983836116f6565b905092915050565b5f602082019050919050565b5f611757826116bd565b61176181856116c7565b935083602082028501611773856116d7565b805f5b858110156117ae578484038952815161178f858261172e565b945061179a83611741565b925060208a01995050600181019050611776565b50829750879550505050505092915050565b5f60c0820190508181035f8301526117d88189611610565b905081810360208301526117ec818861174d565b90506117fb6040830187611428565b61180860608301866114f3565b6118156080830185611648565b61182260a0830184611428565b979650505050505050565b5f80fd5b5f80fd5b5f80fd5b5f8083601f84011261184e5761184d61182d565b5b8235905067ffffffffffffffff81111561186b5761186a611831565b5b60208301915083600182028301111561188757611886611835565b5b9250929050565b5f8083601f8401126118a3576118a261182d565b5b8235905067ffffffffffffffff8111156118c0576118bf611831565b5b6020830191508360208202830111156118dc576118db611835565b5b9250929050565b5f805f805f606086880312156118fc576118fb611379565b5b5f86013567ffffffffffffffff8111156119195761191861137d565b5b61192588828901611839565b9550955050602086013567ffffffffffffffff8111156119485761194761137d565b5b6119548882890161188e565b93509350506040611967888289016113a0565b9150509295509295909350565b7f4d61726b657420646f6573206e6f7420657869737400000000000000000000005f82015250565b5f6119a86015836115c8565b91506119b382611974565b602082019050919050565b5f6020820190508181035f8301526119d58161199c565b9050919050565b7f4d61726b657420616c7265616479207265736f6c7665640000000000000000005f82015250565b5f611a106017836115c8565b9150611a1b826119dc565b602082019050919050565b5f6020820190508181035f830152611a3d81611a04565b9050919050565b7f4d61726b657420766f74696e672068617320656e6465640000000000000000005f82015250565b5f611a786017836115c8565b9150611a8382611a44565b602082019050919050565b5f6020820190508181035f830152611aa581611a6c565b9050919050565b7f496e76616c6964206f7074696f6e0000000000000000000000000000000000005f82015250565b5f611ae0600e836115c8565b9150611aeb82611aac565b602082019050919050565b5f6020820190508181035f830152611b0d81611ad4565b9050919050565b7f4d757374207374616b6520736f6d6520455448000000000000000000000000005f82015250565b5f611b486013836115c8565b9150611b5382611b14565b602082019050919050565b5f6020820190508181035f830152611b7581611b3c565b9050919050565b7f4e487b71000000000000000000000000000000000000000000000000000000005f52601160045260245ffd5b5f611bb382611381565b9150611bbe83611381565b9250828201905080821115611bd657611bd5611b7c565b5b92915050565b5f604082019050611bef5f830185611648565b611bfc6020830184611428565b9392505050565b7f4d61726b6574206e6f74207265736f6c766564207965740000000000000000005f82015250565b5f611c376017836115c8565b9150611c4282611c03565b602082019050919050565b5f6020820190508181035f830152611c6481611c2b565b9050919050565b7f416c726561647920636c61696d656400000000000000000000000000000000005f82015250565b5f611c9f600f836115c8565b9150611caa82611c6b565b602082019050919050565b5f6020820190508181035f830152611ccc81611c93565b9050919050565b7f4e6f2077696e6e696e67207374616b65000000000000000000000000000000005f82015250565b5f611d076010836115c8565b9150611d1282611cd3565b602082019050919050565b5f6020820190508181035f830152611d3481611cfb565b9050919050565b5f611d4582611381565b9150611d5083611381565b9250828202611d5e81611381565b91508282048414831517611d7557611d74611b7c565b5b5092915050565b7f4e487b71000000000000000000000000000000000000000000000000000000005f52601260045260245ffd5b5f611db382611381565b9150611dbe83611381565b925082611dce57611dcd611d7c565b5b828204905092915050565b5f81905092915050565b50565b5f611df15f83611dd9565b9150611dfc82611de3565b5f82019050919050565b5f611e1082611de6565b9150819050919050565b7f5472616e73666572206661696c656400000000000000000000000000000000005f82015250565b5f611e4e600f836115c8565b9150611e5982611e1a565b602082019050919050565b5f6020820190508181035f830152611e7b81611e42565b9050919050565b7f4e487b71000000000000000000000000000000000000000000000000000000005f52602260045260245ffd5b5f6002820490506001821680611ec657607f821691505b602082108103611ed957611ed8611e82565b5b50919050565b7f4e6f74206f776e657200000000000000000000000000000000000000000000005f82015250565b5f611f136009836115c8565b9150611f1e82611edf565b602082019050919050565b5f6020820190508181035f830152611f4081611f07565b9050919050565b7f416c7265616479207265736f6c766564000000000000000000000000000000005f82015250565b5f611f7b6010836115c8565b9150611f8682611f47565b602082019050919050565b5f6020820190508181035f830152611fa881611f6f565b9050919050565b7f496e76616c69642077696e6e696e67206f7074696f6e000000000000000000005f82015250565b5f611fe36016836115c8565b9150611fee82611faf565b602082019050919050565b5f6020820190508181035f83015261201081611fd7565b9050919050565b5f60208201905061202a5f830184611648565b92915050565b7f4e65656420322d3130206f7074696f6e730000000000000000000000000000005f82015250565b5f6120646011836115c8565b915061206f82612030565b602082019050919050565b5f6020820190508181035f83015261209181612058565b9050919050565b7f446561646c696e65206d75737420626520696e207468652066757475726500005f82015250565b5f6120cc601e836115c8565b91506120d782612098565b602082019050919050565b5f6020820190508181035f8301526120f9816120c0565b9050919050565b5f61210a82611381565b91507fffffffffffffffffffffffffffffffffffffffffffffffffffffffffffffffff820361213c5761213b611b7c565b5b600182019050919050565b5f82905092915050565b7f4e487b71000000000000000000000000000000000000000000000000000000005f52604160045260245ffd5b5f819050815f5260205f209050919050565b5f6020601f8301049050919050565b5f82821b905092915050565b5f600883026121da7fffffffffffffffffffffffffffffffffffffffffffffffffffffffffffffffff8261219f565b6121e4868361219f565b95508019841693508086168417925050509392505050565b5f819050919050565b5f61221f61221a61221584611381565b6121fc565b611381565b9050919050565b5f819050919050565b61223883612205565b61224c61224482612226565b8484546121ab565b825550505050565b5f90565b612260612254565b61226b81848461222f565b505050565b5b8181101561228e576122835f82612258565b600181019050612271565b5050565b601f8211156122d3576122a48161217e565b6122ad84612190565b810160208510156122bc578190505b6122d06122c885612190565b830182612270565b50505b505050565b5f82821c905092915050565b5f6122f35f19846008026122d8565b1980831691505092915050565b5f61230b83836122e4565b9150826002028217905092915050565b6123258383612147565b67ffffffffffffffff81111561233e5761233d612151565b5b6123488254611eaf565b612353828285612292565b5f601f831160018114612380575f841561236e578287013590505b6123788582612300565b8655506123df565b601f19841661238e8661217e565b5f5b828110156123b557848901358255600182019150602085019450602081019050612390565b868310156123d257848901356123ce601f8916826122e4565b8355505b6001600288020188555050505b50505050505050565b7f4e487b71000000000000000000000000000000000000000000000000000000005f52603260045260245ffd5b5f80fd5b5f80fd5b5f80fd5b5f808335600160200384360303811261243d5761243c612415565b5b80840192508235915067ffffffffffffffff82111561245f5761245e612419565b5b60208301925060018202360383131561247b5761247a61241d565b5b509250929050565b828183375f83830152505050565b5f61249c83856115c8565b93506124a9838584612483565b6124b283611600565b840190509392505050565b5f819050919050565b5f6124d183856116e6565b93506124de838584612483565b6124e783611600565b840190509392505050565b5f6124fe8484846124c6565b90509392505050565b5f80fd5b5f80fd5b5f80fd5b5f808335600160200384360303811261252f5761252e61250f565b5b83810192508235915060208301925067ffffffffffffffff82111561255757612556612507565b5b60018202360383131561256d5761256c61250b565b5b509250929050565b5f602082019050919050565b5f61258c83856116c7565b93508360208402850161259e846124bd565b805f5b878110156125e35784840389526125b88284612513565b6125c38682846124f2565b95506125ce84612575565b935060208b019a5050506001810190506125a1565b50829750879450505050509392505050565b5f6060820190508181035f83015261260e818789612491565b90508181036020830152612623818587612581565b90506126326040830184611428565b969550505050505056fea2646970667358221220170fd81f06fba0e960356b7d3ed01024d6455d28300ce17a4c6b8083761406c464736f6c63430008180033","opcodes":"PUSH1 0x80 PUSH1 0x40 MSTORE CALLVALUE DUP1 ISZERO PUSH2 0xF JUMPI PUSH0 DUP1 REVERT JUMPDEST POP CALLER PUSH0 DUP1 PUSH2 0x100 EXP DUP2 SLOAD DUP2 PUSH20 0xFFFFFFFFFFFFFFFFFFFFFFFFFFFFFFFFFFFFFFFF MUL NOT AND SWAP1 DUP4 PUSH20 0xFFFFFFFFFFFFFFFFFFFFFFFFFFFFFFFFFFFFFFFF AND MUL OR SWAP1 SSTORE POP PUSH2 0x2672 DUP1 PUSH2 0x5C PUSH0 CODECOPY PUSH0 RETURN INVALID PUSH1 0x80 PUSH1 0x40 MSTORE PUSH1 0x4 CALLDATASIZE LT PUSH2 0xDC JUMPI PUSH0 CALLDATALOAD PUSH1 0xE0 SHR DUP1 PUSH4 0x943E8216 GT PUSH2 0x7E JUMPI DUP1 PUSH4 0xDF55406E GT PUSH2 0x58 JUMPI DUP1 PUSH4 0xDF55406E EQ PUSH2 0x2F7 JUMPI DUP1 PUSH4 0xEB44FDD3 EQ PUSH2 0x31F JUMPI DUP1 PUSH4 0xEC979082 EQ PUSH2 0x360 JUMPI DUP1 PUSH4 0xFBC529CB EQ PUSH2 0x38A JUMPI PUSH2 0xDC JUMP JUMPDEST DUP1 PUSH4 0x943E8216 EQ PUSH2 0x272 JUMPI DUP1 PUSH4 0xAE169A50 EQ PUSH2 0x28E JUMPI DUP1 PUSH4 0xB1283E77 EQ PUSH2 0x2B6 JUMPI PUSH2 0xDC JUMP JUMPDEST DUP1 PUSH4 0x26139735 GT PUSH2 0xBA JUMPI DUP1 PUSH4 0x26139735 EQ PUSH2 0x194 JUMPI DUP1 PUSH4 0x29108EE0 EQ PUSH2 0x1D0 JUMPI DUP1 PUSH4 0x2EC6A9CA EQ PUSH2 0x20C JUMPI DUP1 PUSH4 0x8DA5CB5B EQ PUSH2 0x248 JUMPI PUSH2 0xDC JUMP JUMPDEST DUP1 PUSH4 0x436EE33 EQ PUSH2 0xE0 JUMPI DUP1 PUSH4 0x7C7A72D EQ PUSH2 0x11C JUMPI DUP1 PUSH4 0x120AA877 EQ PUSH2 0x158 JUMPI JUMPDEST PUSH0 DUP1 REVERT JUMPDEST CALLVALUE DUP1 ISZERO PUSH2 0xEB JUMPI PUSH0 DUP1 REVERT JUMPDEST POP PUSH2 0x106 PUSH1 0x4 DUP1 CALLDATASIZE SUB DUP2 ADD SWAP1 PUSH2 0x101 SWAP2 SWAP1 PUSH2 0x13EA JUMP JUMPDEST PUSH2 0x3C6 JUMP JUMPDEST PUSH1 0x40 MLOAD PUSH2 0x113 SWAP2 SWAP1 PUSH2 0x1437 JUMP JUMPDEST PUSH1 0x40 MLOAD DUP1 SWAP2 SUB SWAP1 RETURN JUMPDEST CALLVALUE DUP1 ISZERO PUSH2 0x127 JUMPI PUSH0 DUP1 REVERT JUMPDEST POP PUSH2 0x142 PUSH1 0x4 DUP1 CALLDATASIZE SUB DUP2 ADD SWAP1 PUSH2 0x13D SWAP2 SWAP1 PUSH2 0x14AA JUMP JUMPDEST PUSH2 0x3E6 JUMP JUMPDEST PUSH1 0x40 MLOAD PUSH2 0x14F SWAP2 SWAP1 PUSH2 0x1502 JUMP JUMPDEST PUSH1 0x40 MLOAD DUP1 SWAP2 SUB SWAP1 RETURN JUMPDEST CALLVALUE DUP1 ISZERO PUSH2 0x163 JUMPI PUSH0 DUP1 REVERT JUMPDEST POP PUSH2 0x17E PUSH1 0x4 DUP1 CALLDATASIZE SUB DUP2 ADD SWAP1 PUSH2 0x179 SWAP2 SWAP1 PUSH2 0x14AA JUMP JUMPDEST PUSH2 0x448 JUMP JUMPDEST PUSH1 0x40 MLOAD PUSH2 0x18B SWAP2 SWAP1 PUSH2 0x1502 JUMP JUMPDEST PUSH1 0x40 MLOAD DUP1 SWAP2 SUB SWAP1 RETURN JUMPDEST CALLVALUE DUP1 ISZERO PUSH2 0x19F JUMPI PUSH0 DUP1 REVERT JUMPDEST POP PUSH2 0x1BA PUSH1 0x4 DUP1 CALLDATASIZE SUB DUP2 ADD SWAP1 PUSH2 0x1B5 SWAP2 SWAP1 PUSH2 0x13EA JUMP JUMPDEST PUSH2 0x472 JUMP JUMPDEST PUSH1 0x40 MLOAD PUSH2 0x1C7 SWAP2 SWAP1 PUSH2 0x1437 JUMP JUMPDEST PUSH1 0x40 MLOAD DUP1 SWAP2 SUB SWAP1 RETURN JUMPDEST CALLVALUE DUP1 ISZERO PUSH2 0x1DB JUMPI PUSH0 DUP1 REVERT JUMPDEST POP PUSH2 0x1F6 PUSH1 0x4 DUP1 CALLDATASIZE SUB DUP2 ADD SWAP1 PUSH2 0x1F1 SWAP2 SWAP1 PUSH2 0x151B JUMP JUMPDEST PUSH2 0x4A2 JUMP JUMPDEST PUSH1 0x40 MLOAD PUSH2 0x203 SWAP2 SWAP1 PUSH2 0x1437 JUMP JUMPDEST PUSH1 0x40 MLOAD DUP1 SWAP2 SUB SWAP1 RETURN JUMPDEST CALLVALUE DUP1 ISZERO PUSH2 0x217 JUMPI PUSH0 DUP1 REVERT JUMPDEST POP PUSH2 0x232 PUSH1 0x4 DUP1 CALLDATASIZE SUB DUP2 ADD SWAP1 PUSH2 0x22D SWAP2 SWAP1 PUSH2 0x151B JUMP JUMPDEST PUSH2 0x50E JUMP JUMPDEST PUSH1 0x40 MLOAD PUSH2 0x23F SWAP2 SWAP1 PUSH2 0x1437 JUMP JUMPDEST PUSH1 0x40 MLOAD DUP1 SWAP2 SUB SWAP1 RETURN JUMPDEST CALLVALUE DUP1 ISZERO PUSH2 0x253 JUMPI PUSH0 DUP1 REVERT JUMPDEST POP PUSH2 0x25C PUSH2 0x539 JUMP JUMPDEST PUSH1 0x40 MLOAD PUSH2 0x269 SWAP2 SWAP1 PUSH2 0x157A JUMP JUMPDEST PUSH1 0x40 MLOAD DUP1 SWAP2 SUB SWAP1 RETURN JUMPDEST PUSH2 0x28C PUSH1 0x4 DUP1 CALLDATASIZE SUB DUP2 ADD SWAP1 PUSH2 0x287 SWAP2 SWAP1 PUSH2 0x13EA JUMP JUMPDEST PUSH2 0x55C JUMP JUMPDEST STOP JUMPDEST CALLVALUE DUP1 ISZERO PUSH2 0x299 JUMPI PUSH0 DUP1 REVERT JUMPDEST POP PUSH2 0x2B4 PUSH1 0x4 DUP1 CALLDATASIZE SUB DUP2 ADD SWAP1 PUSH2 0x2AF SWAP2 SWAP1 PUSH2 0x1593 JUMP JUMPDEST PUSH2 0x81A JUMP JUMPDEST STOP JUMPDEST CALLVALUE DUP1 ISZERO PUSH2 0x2C1 JUMPI PUSH0 DUP1 REVERT JUMPDEST POP PUSH2 0x2DC PUSH1 0x4 DUP1 CALLDATASIZE SUB DUP2 ADD SWAP1 PUSH2 0x2D7 SWAP2 SWAP1 PUSH2 0x1593 JUMP JUMPDEST PUSH2 0xBE1 JUMP JUMPDEST PUSH1 0x40 MLOAD PUSH2 0x2EE SWAP7 SWAP6 SWAP5 SWAP4 SWAP3 SWAP2 SWAP1 PUSH2 0x1657 JUMP JUMPDEST PUSH1 0x40 MLOAD DUP1 SWAP2 SUB SWAP1 RETURN JUMPDEST CALLVALUE DUP1 ISZERO PUSH2 0x302 JUMPI PUSH0 DUP1 REVERT JUMPDEST POP PUSH2 0x31D PUSH1 0x4 DUP1 CALLDATASIZE SUB DUP2 ADD SWAP1 PUSH2 0x318 SWAP2 SWAP1 PUSH2 0x13EA JUMP JUMPDEST PUSH2 0xCC4 JUMP JUMPDEST STOP JUMPDEST CALLVALUE DUP1 ISZERO PUSH2 0x32A JUMPI PUSH0 DUP1 REVERT JUMPDEST POP PUSH2 0x345 PUSH1 0x4 DUP1 CALLDATASIZE SUB DUP2 ADD SWAP1 PUSH2 0x340 SWAP2 SWAP1 PUSH2 0x1593 JUMP JUMPDEST PUSH2 0xEDA JUMP JUMPDEST PUSH1 0x40 MLOAD PUSH2 0x357 SWAP7 SWAP6 SWAP5 SWAP4 SWAP3 SWAP2 SWAP1 PUSH2 0x17C0 JUMP JUMPDEST PUSH1 0x40 MLOAD DUP1 SWAP2 SUB SWAP1 RETURN JUMPDEST CALLVALUE DUP1 ISZERO PUSH2 0x36B JUMPI PUSH0 DUP1 REVERT JUMPDEST POP PUSH2 0x374 PUSH2 0x10F9 JUMP JUMPDEST PUSH1 0x40 MLOAD PUSH2 0x381 SWAP2 SWAP1 PUSH2 0x1437 JUMP JUMPDEST PUSH1 0x40 MLOAD DUP1 SWAP2 SUB SWAP1 RETURN JUMPDEST CALLVALUE DUP1 ISZERO PUSH2 0x395 JUMPI PUSH0 DUP1 REVERT JUMPDEST POP PUSH2 0x3B0 PUSH1 0x4 DUP1 CALLDATASIZE SUB DUP2 ADD SWAP1 PUSH2 0x3AB SWAP2 SWAP1 PUSH2 0x18E3 JUMP JUMPDEST PUSH2 0x10FF JUMP JUMPDEST PUSH1 0x40 MLOAD PUSH2 0x3BD SWAP2 SWAP1 PUSH2 0x1437 JUMP JUMPDEST PUSH1 0x40 MLOAD DUP1 SWAP2 SUB SWAP1 RETURN JUMPDEST PUSH1 0x4 PUSH1 0x20 MSTORE DUP2 PUSH0 MSTORE PUSH1 0x40 PUSH0 KECCAK256 PUSH1 0x20 MSTORE DUP1 PUSH0 MSTORE PUSH1 0x40 PUSH0 KECCAK256 PUSH0 SWAP2 POP SWAP2 POP POP SLOAD DUP2 JUMP JUMPDEST PUSH0 PUSH1 0x5 PUSH0 DUP5 DUP2 MSTORE PUSH1 0x20 ADD SWAP1 DUP2 MSTORE PUSH1 0x20 ADD PUSH0 KECCAK256 PUSH0 DUP4 PUSH20 0xFFFFFFFFFFFFFFFFFFFFFFFFFFFFFFFFFFFFFFFF AND PUSH20 0xFFFFFFFFFFFFFFFFFFFFFFFFFFFFFFFFFFFFFFFF AND DUP2 MSTORE PUSH1 0x20 ADD SWAP1 DUP2 MSTORE PUSH1 0x20 ADD PUSH0 KECCAK256 PUSH0 SWAP1 SLOAD SWAP1 PUSH2 0x100 EXP SWAP1 DIV PUSH1 0xFF AND SWAP1 POP SWAP3 SWAP2 POP POP JUMP JUMPDEST PUSH1 0x5 PUSH1 0x20 MSTORE DUP2 PUSH0 MSTORE PUSH1 0x40 PUSH0 KECCAK256 PUSH1 0x20 MSTORE DUP1 PUSH0 MSTORE PUSH1 0x40 PUSH0 KECCAK256 PUSH0 SWAP2 POP SWAP2 POP SWAP1 SLOAD SWAP1 PUSH2 0x100 EXP SWAP1 DIV PUSH1 0xFF AND DUP2 JUMP JUMPDEST PUSH0 PUSH1 0x4 PUSH0 DUP5 DUP2 MSTORE PUSH1 0x20 ADD SWAP1 DUP2 MSTORE PUSH1 0x20 ADD PUSH0 KECCAK256 PUSH0 DUP4 PUSH1 0xFF AND PUSH1 0xFF AND DUP2 MSTORE PUSH1 0x20 ADD SWAP1 DUP2 MSTORE PUSH1 0x20 ADD PUSH0 KECCAK256 SLOAD SWAP1 POP SWAP3 SWAP2 POP POP JUMP JUMPDEST PUSH0 PUSH1 0x3 PUSH0 DUP6 DUP2 MSTORE PUSH1 0x20 ADD SWAP1 DUP2 MSTORE PUSH1 0x20 ADD PUSH0 KECCAK256 PUSH0 DUP5 PUSH1 0xFF AND PUSH1 0xFF AND DUP2 MSTORE PUSH1 0x20 ADD SWAP1 DUP2 MSTORE PUSH1 0x20 ADD PUSH0 KECCAK256 PUSH0 DUP4 PUSH20 0xFFFFFFFFFFFFFFFFFFFFFFFFFFFFFFFFFFFFFFFF AND PUSH20 0xFFFFFFFFFFFFFFFFFFFFFFFFFFFFFFFFFFFFFFFF AND DUP2 MSTORE PUSH1 0x20 ADD SWAP1 DUP2 MSTORE PUSH1 0x20 ADD PUSH0 KECCAK256 SLOAD SWAP1 POP SWAP4 SWAP3 POP POP POP JUMP JUMPDEST PUSH1 0x3 PUSH1 0x20 MSTORE DUP3 PUSH0 MSTORE PUSH1 0x40 PUSH0 KECCAK256 PUSH1 0x20 MSTORE DUP2 PUSH0 MSTORE PUSH1 0x40 PUSH0 KECCAK256 PUSH1 0x20 MSTORE DUP1 PUSH0 MSTORE PUSH1 0x40 PUSH0 KECCAK256 PUSH0 SWAP3 POP SWAP3 POP POP POP SLOAD DUP2 JUMP JUMPDEST PUSH0 DUP1 SLOAD SWAP1 PUSH2 0x100 EXP SWAP1 DIV PUSH20 0xFFFFFFFFFFFFFFFFFFFFFFFFFFFFFFFFFFFFFFFF AND DUP2 JUMP JUMPDEST DUP2 PUSH1 0x2 PUSH0 DUP3 DUP2 MSTORE PUSH1 0x20 ADD SWAP1 DUP2 MSTORE PUSH1 0x20 ADD PUSH0 KECCAK256 PUSH1 0x5 ADD PUSH0 SWAP1 SLOAD SWAP1 PUSH2 0x100 EXP SWAP1 DIV PUSH1 0xFF AND PUSH2 0x5BD JUMPI PUSH1 0x40 MLOAD PUSH32 0x8C379A000000000000000000000000000000000000000000000000000000000 DUP2 MSTORE PUSH1 0x4 ADD PUSH2 0x5B4 SWAP1 PUSH2 0x19BE JUMP JUMPDEST PUSH1 0x40 MLOAD DUP1 SWAP2 SUB SWAP1 REVERT JUMPDEST PUSH0 PUSH1 0x2 PUSH0 DUP6 DUP2 MSTORE PUSH1 0x20 ADD SWAP1 DUP2 MSTORE PUSH1 0x20 ADD PUSH0 KECCAK256 SWAP1 POP DUP1 PUSH1 0x3 ADD PUSH0 SWAP1 SLOAD SWAP1 PUSH2 0x100 EXP SWAP1 DIV PUSH1 0xFF AND ISZERO PUSH2 0x622 JUMPI PUSH1 0x40 MLOAD PUSH32 0x8C379A000000000000000000000000000000000000000000000000000000000 DUP2 MSTORE PUSH1 0x4 ADD PUSH2 0x619 SWAP1 PUSH2 0x1A26 JUMP JUMPDEST PUSH1 0x40 MLOAD DUP1 SWAP2 SUB SWAP1 REVERT JUMPDEST DUP1 PUSH1 0x2 ADD SLOAD TIMESTAMP LT PUSH2 0x668 JUMPI PUSH1 0x40 MLOAD PUSH32 0x8C379A000000000000000000000000000000000000000000000000000000000 DUP2 MSTORE PUSH1 0x4 ADD PUSH2 0x65F SWAP1 PUSH2 0x1A8E JUMP JUMPDEST PUSH1 0x40 MLOAD DUP1 SWAP2 SUB SWAP1 REVERT JUMPDEST DUP1 PUSH1 0x1 ADD DUP1 SLOAD SWAP1 POP DUP4 PUSH1 0xFF AND LT PUSH2 0x6B4 JUMPI PUSH1 0x40 MLOAD PUSH32 0x8C379A000000000000000000000000000000000000000000000000000000000 DUP2 MSTORE PUSH1 0x4 ADD PUSH2 0x6AB SWAP1 PUSH2 0x1AF6 JUMP JUMPDEST PUSH1 0x40 MLOAD DUP1 SWAP2 SUB SWAP1 REVERT JUMPDEST PUSH0 CALLVALUE GT PUSH2 0x6F6 JUMPI PUSH1 0x40 MLOAD PUSH32 0x8C379A000000000000000000000000000000000000000000000000000000000 DUP2 MSTORE PUSH1 0x4 ADD PUSH2 0x6ED SWAP1 PUSH2 0x1B5E JUMP JUMPDEST PUSH1 0x40 MLOAD DUP1 SWAP2 SUB SWAP1 REVERT JUMPDEST CALLVALUE PUSH1 0x3 PUSH0 DUP7 DUP2 MSTORE PUSH1 0x20 ADD SWAP1 DUP2 MSTORE PUSH1 0x20 ADD PUSH0 KECCAK256 PUSH0 DUP6 PUSH1 0xFF AND PUSH1 0xFF AND DUP2 MSTORE PUSH1 0x20 ADD SWAP1 DUP2 MSTORE PUSH1 0x20 ADD PUSH0 KECCAK256 PUSH0 CALLER PUSH20 0xFFFFFFFFFFFFFFFFFFFFFFFFFFFFFFFFFFFFFFFF AND PUSH20 0xFFFFFFFFFFFFFFFFFFFFFFFFFFFFFFFFFFFFFFFF AND DUP2 MSTORE PUSH1 0x20 ADD SWAP1 DUP2 MSTORE PUSH1 0x20 ADD PUSH0 KECCAK256 PUSH0 DUP3 DUP3 SLOAD PUSH2 0x766 SWAP2 SWAP1 PUSH2 0x1BA9 JUMP JUMPDEST SWAP3 POP POP DUP2 SWAP1 SSTORE POP CALLVALUE PUSH1 0x4 PUSH0 DUP7 DUP2 MSTORE PUSH1 0x20 ADD SWAP1 DUP2 MSTORE PUSH1 0x20 ADD PUSH0 KECCAK256 PUSH0 DUP6 PUSH1 0xFF AND PUSH1 0xFF AND DUP2 MSTORE PUSH1 0x20 ADD SWAP1 DUP2 MSTORE PUSH1 0x20 ADD PUSH0 KECCAK256 PUSH0 DUP3 DUP3 SLOAD PUSH2 0x7A2 SWAP2 SWAP1 PUSH2 0x1BA9 JUMP JUMPDEST SWAP3 POP POP DUP2 SWAP1 SSTORE POP CALLVALUE DUP2 PUSH1 0x4 ADD PUSH0 DUP3 DUP3 SLOAD PUSH2 0x7BC SWAP2 SWAP1 PUSH2 0x1BA9 JUMP JUMPDEST SWAP3 POP POP DUP2 SWAP1 SSTORE POP CALLER PUSH20 0xFFFFFFFFFFFFFFFFFFFFFFFFFFFFFFFFFFFFFFFF AND DUP5 PUSH32 0x3F9B9F159C5A4C91EBA505978461AB7E174C724BC65614347AD4B10042C4CF77 DUP6 CALLVALUE PUSH1 0x40 MLOAD PUSH2 0x80C SWAP3 SWAP2 SWAP1 PUSH2 0x1BDC JUMP JUMPDEST PUSH1 0x40 MLOAD DUP1 SWAP2 SUB SWAP1 LOG3 POP POP POP POP JUMP JUMPDEST DUP1 PUSH1 0x2 PUSH0 DUP3 DUP2 MSTORE PUSH1 0x20 ADD SWAP1 DUP2 MSTORE PUSH1 0x20 ADD PUSH0 KECCAK256 PUSH1 0x5 ADD PUSH0 SWAP1 SLOAD SWAP1 PUSH2 0x100 EXP SWAP1 DIV PUSH1 0xFF AND PUSH2 0x87B JUMPI PUSH1 0x40 MLOAD PUSH32 0x8C379A000000000000000000000000000000000000000000000000000000000 DUP2 MSTORE PUSH1 0x4 ADD PUSH2 0x872 SWAP1 PUSH2 0x19BE JUMP JUMPDEST PUSH1 0x40 MLOAD DUP1 SWAP2 SUB SWAP1 REVERT JUMPDEST PUSH0 PUSH1 0x2 PUSH0 DUP5 DUP2 MSTORE PUSH1 0x20 ADD SWAP1 DUP2 MSTORE PUSH1 0x20 ADD PUSH0 KECCAK256 SWAP1 POP DUP1 PUSH1 0x3 ADD PUSH0 SWAP1 SLOAD SWAP1 PUSH2 0x100 EXP SWAP1 DIV PUSH1 0xFF AND PUSH2 0x8DF JUMPI PUSH1 0x40 MLOAD PUSH32 0x8C379A000000000000000000000000000000000000000000000000000000000 DUP2 MSTORE PUSH1 0x4 ADD PUSH2 0x8D6 SWAP1 PUSH2 0x1C4D JUMP JUMPDEST PUSH1 0x40 MLOAD DUP1 SWAP2 SUB SWAP1 REVERT JUMPDEST PUSH1 0x5 PUSH0 DUP5 DUP2 MSTORE PUSH1 0x20 ADD SWAP1 DUP2 MSTORE PUSH1 0x20 ADD PUSH0 KECCAK256 PUSH0 CALLER PUSH20 0xFFFFFFFFFFFFFFFFFFFFFFFFFFFFFFFFFFFFFFFF AND PUSH20 0xFFFFFFFFFFFFFFFFFFFFFFFFFFFFFFFFFFFFFFFF AND DUP2 MSTORE PUSH1 0x20 ADD SWAP1 DUP2 MSTORE PUSH1 0x20 ADD PUSH0 KECCAK256 PUSH0 SWAP1 SLOAD SWAP1 PUSH2 0x100 EXP SWAP1 DIV PUSH1 0xFF AND ISZERO PUSH2 0x978 JUMPI PUSH1 0x40 MLOAD PUSH32 0x8C379A000000000000000000000000000000000000000000000000000000000 DUP2 MSTORE PUSH1 0x4 ADD PUSH2 0x96F SWAP1 PUSH2 0x1CB5 JUMP JUMPDEST PUSH1 0x40 MLOAD DUP1 SWAP2 SUB SWAP1 REVERT JUMPDEST PUSH0 DUP2 PUSH1 0x3 ADD PUSH1 0x1 SWAP1 SLOAD SWAP1 PUSH2 0x100 EXP SWAP1 DIV PUSH1 0xFF AND SWAP1 POP PUSH0 PUSH1 0x3 PUSH0 DUP7 DUP2 MSTORE PUSH1 0x20 ADD SWAP1 DUP2 MSTORE PUSH1 0x20 ADD PUSH0 KECCAK256 PUSH0 DUP4 PUSH1 0xFF AND PUSH1 0xFF AND DUP2 MSTORE PUSH1 0x20 ADD SWAP1 DUP2 MSTORE PUSH1 0x20 ADD PUSH0 KECCAK256 PUSH0 CALLER PUSH20 0xFFFFFFFFFFFFFFFFFFFFFFFFFFFFFFFFFFFFFFFF AND PUSH20 0xFFFFFFFFFFFFFFFFFFFFFFFFFFFFFFFFFFFFFFFF AND DUP2 MSTORE PUSH1 0x20 ADD SWAP1 DUP2 MSTORE PUSH1 0x20 ADD PUSH0 KECCAK256 SLOAD SWAP1 POP PUSH0 DUP2 GT PUSH2 0xA34 JUMPI PUSH1 0x40 MLOAD PUSH32 0x8C379A000000000000000000000000000000000000000000000000000000000 DUP2 MSTORE PUSH1 0x4 ADD PUSH2 0xA2B SWAP1 PUSH2 0x1D1D JUMP JUMPDEST PUSH1 0x40 MLOAD DUP1 SWAP2 SUB SWAP1 REVERT JUMPDEST PUSH1 0x1 PUSH1 0x5 PUSH0 DUP8 DUP2 MSTORE PUSH1 0x20 ADD SWAP1 DUP2 MSTORE PUSH1 0x20 ADD PUSH0 KECCAK256 PUSH0 CALLER PUSH20 0xFFFFFFFFFFFFFFFFFFFFFFFFFFFFFFFFFFFFFFFF AND PUSH20 0xFFFFFFFFFFFFFFFFFFFFFFFFFFFFFFFFFFFFFFFF AND DUP2 MSTORE PUSH1 0x20 ADD SWAP1 DUP2 MSTORE PUSH1 0x20 ADD PUSH0 KECCAK256 PUSH0 PUSH2 0x100 EXP DUP2 SLOAD DUP2 PUSH1 0xFF MUL NOT AND SWAP1 DUP4 ISZERO ISZERO MUL OR SWAP1 SSTORE POP PUSH0 PUSH1 0x4 PUSH0 DUP8 DUP2 MSTORE PUSH1 0x20 ADD SWAP1 DUP2 MSTORE PUSH1 0x20 ADD PUSH0 KECCAK256 PUSH0 DUP5 PUSH1 0xFF AND PUSH1 0xFF AND DUP2 MSTORE PUSH1 0x20 ADD SWAP1 DUP2 MSTORE PUSH1 0x20 ADD PUSH0 KECCAK256 SLOAD SWAP1 POP PUSH0 DUP2 DUP4 DUP7 PUSH1 0x4 ADD SLOAD PUSH2 0xAD4 SWAP2 SWAP1 PUSH2 0x1D3B JUMP JUMPDEST PUSH2 0xADE SWAP2 SWAP1 PUSH2 0x1DA9 JUMP JUMPDEST SWAP1 POP PUSH0 CALLER PUSH20 0xFFFFFFFFFFFFFFFFFFFFFFFFFFFFFFFFFFFFFFFF AND DUP3 PUSH1 0x40 MLOAD PUSH2 0xB05 SWAP1 PUSH2 0x1E06 JUMP JUMPDEST PUSH0 PUSH1 0x40 MLOAD DUP1 DUP4 SUB DUP2 DUP6 DUP8 GAS CALL SWAP3 POP POP POP RETURNDATASIZE DUP1 PUSH0 DUP2 EQ PUSH2 0xB3F JUMPI PUSH1 0x40 MLOAD SWAP2 POP PUSH1 0x1F NOT PUSH1 0x3F RETURNDATASIZE ADD AND DUP3 ADD PUSH1 0x40 MSTORE RETURNDATASIZE DUP3 MSTORE RETURNDATASIZE PUSH0 PUSH1 0x20 DUP5 ADD RETURNDATACOPY PUSH2 0xB44 JUMP JUMPDEST PUSH1 0x60 SWAP2 POP JUMPDEST POP POP SWAP1 POP DUP1 PUSH2 0xB88 JUMPI PUSH1 0x40 MLOAD PUSH32 0x8C379A000000000000000000000000000000000000000000000000000000000 DUP2 MSTORE PUSH1 0x4 ADD PUSH2 0xB7F SWAP1 PUSH2 0x1E64 JUMP JUMPDEST PUSH1 0x40 MLOAD DUP1 SWAP2 SUB SWAP1 REVERT JUMPDEST CALLER PUSH20 0xFFFFFFFFFFFFFFFFFFFFFFFFFFFFFFFFFFFFFFFF AND DUP9 PUSH32 0x24B5EFA61DD1CFC659205A97FB8ED868F3CB8C81922BAB2B96423E5DE1DE2CB7 DUP5 PUSH1 0x40 MLOAD PUSH2 0xBCF SWAP2 SWAP1 PUSH2 0x1437 JUMP JUMPDEST PUSH1 0x40 MLOAD DUP1 SWAP2 SUB SWAP1 LOG3 POP POP POP POP POP POP POP POP JUMP JUMPDEST PUSH1 0x2 PUSH1 0x20 MSTORE DUP1 PUSH0 MSTORE PUSH1 0x40 PUSH0 KECCAK256 PUSH0 SWAP2 POP SWAP1 POP DUP1 PUSH0 ADD DUP1 SLOAD PUSH2 0xC00 SWAP1 PUSH2 0x1EAF JUMP JUMPDEST DUP1 PUSH1 0x1F ADD PUSH1 0x20 DUP1 SWAP2 DIV MUL PUSH1 0x20 ADD PUSH1 0x40 MLOAD SWAP1 DUP2 ADD PUSH1 0x40 MSTORE DUP1 SWAP3 SWAP2 SWAP1 DUP2 DUP2 MSTORE PUSH1 0x20 ADD DUP3 DUP1 SLOAD PUSH2 0xC2C SWAP1 PUSH2 0x1EAF JUMP JUMPDEST DUP1 ISZERO PUSH2 0xC77 JUMPI DUP1 PUSH1 0x1F LT PUSH2 0xC4E JUMPI PUSH2 0x100 DUP1 DUP4 SLOAD DIV MUL DUP4 MSTORE SWAP2 PUSH1 0x20 ADD SWAP2 PUSH2 0xC77 JUMP JUMPDEST DUP3 ADD SWAP2 SWAP1 PUSH0 MSTORE PUSH1 0x20 PUSH0 KECCAK256 SWAP1 JUMPDEST DUP2 SLOAD DUP2 MSTORE SWAP1 PUSH1 0x1 ADD SWAP1 PUSH1 0x20 ADD DUP1 DUP4 GT PUSH2 0xC5A JUMPI DUP3 SWAP1 SUB PUSH1 0x1F AND DUP3 ADD SWAP2 JUMPDEST POP POP POP POP POP SWAP1 DUP1 PUSH1 0x2 ADD SLOAD SWAP1 DUP1 PUSH1 0x3 ADD PUSH0 SWAP1 SLOAD SWAP1 PUSH2 0x100 EXP SWAP1 DIV PUSH1 0xFF AND SWAP1 DUP1 PUSH1 0x3 ADD PUSH1 0x1 SWAP1 SLOAD SWAP1 PUSH2 0x100 EXP SWAP1 DIV PUSH1 0xFF AND SWAP1 DUP1 PUSH1 0x4 ADD SLOAD SWAP1 DUP1 PUSH1 0x5 ADD PUSH0 SWAP1 SLOAD SWAP1 PUSH2 0x100 EXP SWAP1 DIV PUSH1 0xFF AND SWAP1 POP DUP7 JUMP JUMPDEST PUSH0 DUP1 SLOAD SWAP1 PUSH2 0x100 EXP SWAP1 DIV PUSH20 0xFFFFFFFFFFFFFFFFFFFFFFFFFFFFFFFFFFFFFFFF AND PUSH20 0xFFFFFFFFFFFFFFFFFFFFFFFFFFFFFFFFFFFFFFFF AND CALLER PUSH20 0xFFFFFFFFFFFFFFFFFFFFFFFFFFFFFFFFFFFFFFFF AND EQ PUSH2 0xD51 JUMPI PUSH1 0x40 MLOAD PUSH32 0x8C379A000000000000000000000000000000000000000000000000000000000 DUP2 MSTORE PUSH1 0x4 ADD PUSH2 0xD48 SWAP1 PUSH2 0x1F29 JUMP JUMPDEST PUSH1 0x40 MLOAD DUP1 SWAP2 SUB SWAP1 REVERT JUMPDEST DUP2 PUSH1 0x2 PUSH0 DUP3 DUP2 MSTORE PUSH1 0x20 ADD SWAP1 DUP2 MSTORE PUSH1 0x20 ADD PUSH0 KECCAK256 PUSH1 0x5 ADD PUSH0 SWAP1 SLOAD SWAP1 PUSH2 0x100 EXP SWAP1 DIV PUSH1 0xFF AND PUSH2 0xDB2 JUMPI PUSH1 0x40 MLOAD PUSH32 0x8C379A000000000000000000000000000000000000000000000000000000000 DUP2 MSTORE PUSH1 0x4 ADD PUSH2 0xDA9 SWAP1 PUSH2 0x19BE JUMP JUMPDEST PUSH1 0x40 MLOAD DUP1 SWAP2 SUB SWAP1 REVERT JUMPDEST PUSH0 PUSH1 0x2 PUSH0 DUP6 DUP2 MSTORE PUSH1 0x20 ADD SWAP1 DUP2 MSTORE PUSH1 0x20 ADD PUSH0 KECCAK256 SWAP1 POP DUP1 PUSH1 0x3 ADD PUSH0 SWAP1 SLOAD SWAP1 PUSH2 0x100 EXP SWAP1 DIV PUSH1 0xFF AND ISZERO PUSH2 0xE17 JUMPI PUSH1 0x40 MLOAD PUSH32 0x8C379A000000000000000000000000000000000000000000000000000000000 DUP2 MSTORE PUSH1 0x4 ADD PUSH2 0xE0E SWAP1 PUSH2 0x1F91 JUMP JUMPDEST PUSH1 0x40 MLOAD DUP1 SWAP2 SUB SWAP1 REVERT JUMPDEST DUP1 PUSH1 0x1 ADD DUP1 SLOAD SWAP1 POP DUP4 PUSH1 0xFF AND LT PUSH2 0xE63 JUMPI PUSH1 0x40 MLOAD PUSH32 0x8C379A000000000000000000000000000000000000000000000000000000000 DUP2 MSTORE PUSH1 0x4 ADD PUSH2 0xE5A SWAP1 PUSH2 0x1FF9 JUMP JUMPDEST PUSH1 0x40 MLOAD DUP1 SWAP2 SUB SWAP1 REVERT JUMPDEST PUSH1 0x1 DUP2 PUSH1 0x3 ADD PUSH0 PUSH2 0x100 EXP DUP2 SLOAD DUP2 PUSH1 0xFF MUL NOT AND SWAP1 DUP4 ISZERO ISZERO MUL OR SWAP1 SSTORE POP DUP3 DUP2 PUSH1 0x3 ADD PUSH1 0x1 PUSH2 0x100 EXP DUP2 SLOAD DUP2 PUSH1 0xFF MUL NOT AND SWAP1 DUP4 PUSH1 0xFF AND MUL OR SWAP1 SSTORE POP DUP4 PUSH32 0x739F283563FB51AB6B89EE95D937B2E63A6CFCB83C385DBEBB629F9D97BD43E6 DUP5 PUSH1 0x40 MLOAD PUSH2 0xECC SWAP2 SWAP1 PUSH2 0x2017 JUMP JUMPDEST PUSH1 0x40 MLOAD DUP1 SWAP2 SUB SWAP1 LOG2 POP POP POP POP JUMP JUMPDEST PUSH1 0x60 DUP1 PUSH0 DUP1 PUSH0 DUP1 DUP7 PUSH1 0x2 PUSH0 DUP3 DUP2 MSTORE PUSH1 0x20 ADD SWAP1 DUP2 MSTORE PUSH1 0x20 ADD PUSH0 KECCAK256 PUSH1 0x5 ADD PUSH0 SWAP1 SLOAD SWAP1 PUSH2 0x100 EXP SWAP1 DIV PUSH1 0xFF AND PUSH2 0xF42 JUMPI PUSH1 0x40 MLOAD PUSH32 0x8C379A000000000000000000000000000000000000000000000000000000000 DUP2 MSTORE PUSH1 0x4 ADD PUSH2 0xF39 SWAP1 PUSH2 0x19BE JUMP JUMPDEST PUSH1 0x40 MLOAD DUP1 SWAP2 SUB SWAP1 REVERT JUMPDEST PUSH0 PUSH1 0x2 PUSH0 DUP11 DUP2 MSTORE PUSH1 0x20 ADD SWAP1 DUP2 MSTORE PUSH1 0x20 ADD PUSH0 KECCAK256 SWAP1 POP DUP1 PUSH0 ADD DUP2 PUSH1 0x1 ADD DUP3 PUSH1 0x2 ADD SLOAD DUP4 PUSH1 0x3 ADD PUSH0 SWAP1 SLOAD SWAP1 PUSH2 0x100 EXP SWAP1 DIV PUSH1 0xFF AND DUP5 PUSH1 0x3 ADD PUSH1 0x1 SWAP1 SLOAD SWAP1 PUSH2 0x100 EXP SWAP1 DIV PUSH1 0xFF AND DUP6 PUSH1 0x4 ADD SLOAD DUP6 DUP1 SLOAD PUSH2 0xF96 SWAP1 PUSH2 0x1EAF JUMP JUMPDEST DUP1 PUSH1 0x1F ADD PUSH1 0x20 DUP1 SWAP2 DIV MUL PUSH1 0x20 ADD PUSH1 0x40 MLOAD SWAP1 DUP2 ADD PUSH1 0x40 MSTORE DUP1 SWAP3 SWAP2 SWAP1 DUP2 DUP2 MSTORE PUSH1 0x20 ADD DUP3 DUP1 SLOAD PUSH2 0xFC2 SWAP1 PUSH2 0x1EAF JUMP JUMPDEST DUP1 ISZERO PUSH2 0x100D JUMPI DUP1 PUSH1 0x1F LT PUSH2 0xFE4 JUMPI PUSH2 0x100 DUP1 DUP4 SLOAD DIV MUL DUP4 MSTORE SWAP2 PUSH1 0x20 ADD SWAP2 PUSH2 0x100D JUMP JUMPDEST DUP3 ADD SWAP2 SWAP1 PUSH0 MSTORE PUSH1 0x20 PUSH0 KECCAK256 SWAP1 JUMPDEST DUP2 SLOAD DUP2 MSTORE SWAP1 PUSH1 0x1 ADD SWAP1 PUSH1 0x20 ADD DUP1 DUP4 GT PUSH2 0xFF0 JUMPI DUP3 SWAP1 SUB PUSH1 0x1F AND DUP3 ADD SWAP2 JUMPDEST POP POP POP POP POP SWAP6 POP DUP5 DUP1 SLOAD DUP1 PUSH1 0x20 MUL PUSH1 0x20 ADD PUSH1 0x40 MLOAD SWAP1 DUP2 ADD PUSH1 0x40 MSTORE DUP1 SWAP3 SWAP2 SWAP1 DUP2 DUP2 MSTORE PUSH1 0x20 ADD PUSH0 SWAP1 JUMPDEST DUP3 DUP3 LT ISZERO PUSH2 0x10DC JUMPI DUP4 DUP3 SWAP1 PUSH0 MSTORE PUSH1 0x20 PUSH0 KECCAK256 ADD DUP1 SLOAD PUSH2 0x1051 SWAP1 PUSH2 0x1EAF JUMP JUMPDEST DUP1 PUSH1 0x1F ADD PUSH1 0x20 DUP1 SWAP2 DIV MUL PUSH1 0x20 ADD PUSH1 0x40 MLOAD SWAP1 DUP2 ADD PUSH1 0x40 MSTORE DUP1 SWAP3 SWAP2 SWAP1 DUP2 DUP2 MSTORE PUSH1 0x20 ADD DUP3 DUP1 SLOAD PUSH2 0x107D SWAP1 PUSH2 0x1EAF JUMP JUMPDEST DUP1 ISZERO PUSH2 0x10C8 JUMPI DUP1 PUSH1 0x1F LT PUSH2 0x109F JUMPI PUSH2 0x100 DUP1 DUP4 SLOAD DIV MUL DUP4 MSTORE SWAP2 PUSH1 0x20 ADD SWAP2 PUSH2 0x10C8 JUMP JUMPDEST DUP3 ADD SWAP2 SWAP1 PUSH0 MSTORE PUSH1 0x20 PUSH0 KECCAK256 SWAP1 JUMPDEST DUP2 SLOAD DUP2 MSTORE SWAP1 PUSH1 0x1 ADD SWAP1 PUSH1 0x20 ADD DUP1 DUP4 GT PUSH2 0x10AB JUMPI DUP3 SWAP1 SUB PUSH1 0x1F AND DUP3 ADD SWAP2 JUMPDEST POP POP POP POP POP DUP2 MSTORE PUSH1 0x20 ADD SWAP1 PUSH1 0x1 ADD SWAP1 PUSH2 0x1034 JUMP JUMPDEST POP POP POP POP SWAP5 POP SWAP8 POP SWAP8 POP SWAP8 POP SWAP8 POP SWAP8 POP SWAP8 POP POP POP SWAP2 SWAP4 SWAP6 POP SWAP2 SWAP4 SWAP6 JUMP JUMPDEST PUSH1 0x1 SLOAD DUP2 JUMP JUMPDEST PUSH0 DUP1 PUSH0 SWAP1 SLOAD SWAP1 PUSH2 0x100 EXP SWAP1 DIV PUSH20 0xFFFFFFFFFFFFFFFFFFFFFFFFFFFFFFFFFFFFFFFF AND PUSH20 0xFFFFFFFFFFFFFFFFFFFFFFFFFFFFFFFFFFFFFFFF AND CALLER PUSH20 0xFFFFFFFFFFFFFFFFFFFFFFFFFFFFFFFFFFFFFFFF AND EQ PUSH2 0x118E JUMPI PUSH1 0x40 MLOAD PUSH32 0x8C379A000000000000000000000000000000000000000000000000000000000 DUP2 MSTORE PUSH1 0x4 ADD PUSH2 0x1185 SWAP1 PUSH2 0x1F29 JUMP JUMPDEST PUSH1 0x40 MLOAD DUP1 SWAP2 SUB SWAP1 REVERT JUMPDEST PUSH1 0x2 DUP5 DUP5 SWAP1 POP LT ISZERO DUP1 ISZERO PUSH2 0x11A6 JUMPI POP PUSH1 0xA DUP5 DUP5 SWAP1 POP GT ISZERO JUMPDEST PUSH2 0x11E5 JUMPI PUSH1 0x40 MLOAD PUSH32 0x8C379A000000000000000000000000000000000000000000000000000000000 DUP2 MSTORE PUSH1 0x4 ADD PUSH2 0x11DC SWAP1 PUSH2 0x207A JUMP JUMPDEST PUSH1 0x40 MLOAD DUP1 SWAP2 SUB SWAP1 REVERT JUMPDEST TIMESTAMP DUP3 GT PUSH2 0x1227 JUMPI PUSH1 0x40 MLOAD PUSH32 0x8C379A000000000000000000000000000000000000000000000000000000000 DUP2 MSTORE PUSH1 0x4 ADD PUSH2 0x121E SWAP1 PUSH2 0x20E2 JUMP JUMPDEST PUSH1 0x40 MLOAD DUP1 SWAP2 SUB SWAP1 REVERT JUMPDEST PUSH0 PUSH1 0x1 PUSH0 DUP2 SLOAD DUP1 SWAP3 SWAP2 SWAP1 PUSH2 0x123A SWAP1 PUSH2 0x2100 JUMP JUMPDEST SWAP2 SWAP1 POP SSTORE SWAP1 POP PUSH0 PUSH1 0x2 PUSH0 DUP4 DUP2 MSTORE PUSH1 0x20 ADD SWAP1 DUP2 MSTORE PUSH1 0x20 ADD PUSH0 KECCAK256 SWAP1 POP DUP8 DUP8 DUP3 PUSH0 ADD SWAP2 DUP3 PUSH2 0x1266 SWAP3 SWAP2 SWAP1 PUSH2 0x231B JUMP JUMPDEST POP DUP4 DUP2 PUSH1 0x2 ADD DUP2 SWAP1 SSTORE POP PUSH0 DUP2 PUSH1 0x3 ADD PUSH0 PUSH2 0x100 EXP DUP2 SLOAD DUP2 PUSH1 0xFF MUL NOT AND SWAP1 DUP4 ISZERO ISZERO MUL OR SWAP1 SSTORE POP PUSH0 DUP2 PUSH1 0x4 ADD DUP2 SWAP1 SSTORE POP PUSH1 0x1 DUP2 PUSH1 0x5 ADD PUSH0 PUSH2 0x100 EXP DUP2 SLOAD DUP2 PUSH1 0xFF MUL NOT AND SWAP1 DUP4 ISZERO ISZERO MUL OR SWAP1 SSTORE POP PUSH0 JUMPDEST DUP7 DUP7 SWAP1 POP DUP2 LT ISZERO PUSH2 0x132A JUMPI DUP2 PUSH1 0x1 ADD DUP8 DUP8 DUP4 DUP2 DUP2 LT PUSH2 0x12D4 JUMPI PUSH2 0x12D3 PUSH2 0x23E8 JUMP JUMPDEST JUMPDEST SWAP1 POP PUSH1 0x20 MUL DUP2 ADD SWAP1 PUSH2 0x12E6 SWAP2 SWAP1 PUSH2 0x2421 JUMP JUMPDEST SWAP1 SWAP2 DUP1 PUSH1 0x1 DUP2 SLOAD ADD DUP1 DUP3 SSTORE DUP1 SWAP2 POP POP PUSH1 0x1 SWAP1 SUB SWAP1 PUSH0 MSTORE PUSH1 0x20 PUSH0 KECCAK256 ADD PUSH0 SWAP1 SWAP2 SWAP3 SWAP1 SWAP2 SWAP3 SWAP1 SWAP2 SWAP3 SWAP1 SWAP2 SWAP3 POP SWAP2 DUP3 PUSH2 0x131C SWAP3 SWAP2 SWAP1 PUSH2 0x231B JUMP JUMPDEST POP DUP1 DUP1 PUSH1 0x1 ADD SWAP2 POP POP PUSH2 0x12B2 JUMP JUMPDEST POP DUP2 PUSH32 0xDB6AE5C511CD814E8B6D7DD1F64D32F3BD488E4361486CDCFA2E2DEBAEDDCA87 DUP10 DUP10 DUP10 DUP10 DUP10 PUSH1 0x40 MLOAD PUSH2 0x1363 SWAP6 SWAP5 SWAP4 SWAP3 SWAP2 SWAP1 PUSH2 0x25F5 JUMP JUMPDEST PUSH1 0x40 MLOAD DUP1 SWAP2 SUB SWAP1 LOG2 DUP2 SWAP3 POP POP POP SWAP6 SWAP5 POP POP POP POP POP JUMP JUMPDEST PUSH0 DUP1 REVERT JUMPDEST PUSH0 DUP1 REVERT JUMPDEST PUSH0 DUP2 SWAP1 POP SWAP2 SWAP1 POP JUMP JUMPDEST PUSH2 0x1393 DUP2 PUSH2 0x1381 JUMP JUMPDEST DUP2 EQ PUSH2 0x139D JUMPI PUSH0 DUP1 REVERT JUMPDEST POP JUMP JUMPDEST PUSH0 DUP2 CALLDATALOAD SWAP1 POP PUSH2 0x13AE DUP2 PUSH2 0x138A JUMP JUMPDEST SWAP3 SWAP2 POP POP JUMP JUMPDEST PUSH0 PUSH1 0xFF DUP3 AND SWAP1 POP SWAP2 SWAP1 POP JUMP JUMPDEST PUSH2 0x13C9 DUP2 PUSH2 0x13B4 JUMP JUMPDEST DUP2 EQ PUSH2 0x13D3 JUMPI PUSH0 DUP1 REVERT JUMPDEST POP JUMP JUMPDEST PUSH0 DUP2 CALLDATALOAD SWAP1 POP PUSH2 0x13E4 DUP2 PUSH2 0x13C0 JUMP JUMPDEST SWAP3 SWAP2 POP POP JUMP JUMPDEST PUSH0 DUP1 PUSH1 0x40 DUP4 DUP6 SUB SLT ISZERO PUSH2 0x1400 JUMPI PUSH2 0x13FF PUSH2 0x1379 JUMP JUMPDEST JUMPDEST PUSH0 PUSH2 0x140D DUP6 DUP3 DUP7 ADD PUSH2 0x13A0 JUMP JUMPDEST SWAP3 POP POP PUSH1 0x20 PUSH2 0x141E DUP6 DUP3 DUP7 ADD PUSH2 0x13D6 JUMP JUMPDEST SWAP2 POP POP SWAP3 POP SWAP3 SWAP1 POP JUMP JUMPDEST PUSH2 0x1431 DUP2 PUSH2 0x1381 JUMP JUMPDEST DUP3 MSTORE POP POP JUMP JUMPDEST PUSH0 PUSH1 0x20 DUP3 ADD SWAP1 POP PUSH2 0x144A PUSH0 DUP4 ADD DUP5 PUSH2 0x1428 JUMP JUMPDEST SWAP3 SWAP2 POP POP JUMP JUMPDEST PUSH0 PUSH20 0xFFFFFFFFFFFFFFFFFFFFFFFFFFFFFFFFFFFFFFFF DUP3 AND SWAP1 POP SWAP2 SWAP1 POP JUMP JUMPDEST PUSH0 PUSH2 0x1479 DUP3 PUSH2 0x1450 JUMP JUMPDEST SWAP1 POP SWAP2 SWAP1 POP JUMP JUMPDEST PUSH2 0x1489 DUP2 PUSH2 0x146F JUMP JUMPDEST DUP2 EQ PUSH2 0x1493 JUMPI PUSH0 DUP1 REVERT JUMPDEST POP JUMP JUMPDEST PUSH0 DUP2 CALLDATALOAD SWAP1 POP PUSH2 0x14A4 DUP2 PUSH2 0x1480 JUMP JUMPDEST SWAP3 SWAP2 POP POP JUMP JUMPDEST PUSH0 DUP1 PUSH1 0x40 DUP4 DUP6 SUB SLT ISZERO PUSH2 0x14C0 JUMPI PUSH2 0x14BF PUSH2 0x1379 JUMP JUMPDEST JUMPDEST PUSH0 PUSH2 0x14CD DUP6 DUP3 DUP7 ADD PUSH2 0x13A0 JUMP JUMPDEST SWAP3 POP POP PUSH1 0x20 PUSH2 0x14DE DUP6 DUP3 DUP7 ADD PUSH2 0x1496 JUMP JUMPDEST SWAP2 POP POP SWAP3 POP SWAP3 SWAP1 POP JUMP JUMPDEST PUSH0 DUP2 ISZERO ISZERO SWAP1 POP SWAP2 SWAP1 POP JUMP JUMPDEST PUSH2 0x14FC DUP2 PUSH2 0x14E8 JUMP JUMPDEST DUP3 MSTORE POP POP JUMP JUMPDEST PUSH0 PUSH1 0x20 DUP3 ADD SWAP1 POP PUSH2 0x1515 PUSH0 DUP4 ADD DUP5 PUSH2 0x14F3 JUMP JUMPDEST SWAP3 SWAP2 POP POP JUMP JUMPDEST PUSH0 DUP1 PUSH0 PUSH1 0x60 DUP5 DUP7 SUB SLT ISZERO PUSH2 0x1532 JUMPI PUSH2 0x1531 PUSH2 0x1379 JUMP JUMPDEST JUMPDEST PUSH0 PUSH2 0x153F DUP7 DUP3 DUP8 ADD PUSH2 0x13A0 JUMP JUMPDEST SWAP4 POP POP PUSH1 0x20 PUSH2 0x1550 DUP7 DUP3 DUP8 ADD PUSH2 0x13D6 JUMP JUMPDEST SWAP3 POP POP PUSH1 0x40 PUSH2 0x1561 DUP7 DUP3 DUP8 ADD PUSH2 0x1496 JUMP JUMPDEST SWAP2 POP POP SWAP3 POP SWAP3 POP SWAP3 JUMP JUMPDEST PUSH2 0x1574 DUP2 PUSH2 0x146F JUMP JUMPDEST DUP3 MSTORE POP POP JUMP JUMPDEST PUSH0 PUSH1 0x20 DUP3 ADD SWAP1 POP PUSH2 0x158D PUSH0 DUP4 ADD DUP5 PUSH2 0x156B JUMP JUMPDEST SWAP3 SWAP2 POP POP JUMP JUMPDEST PUSH0 PUSH1 0x20 DUP3 DUP5 SUB SLT ISZERO PUSH2 0x15A8 JUMPI PUSH2 0x15A7 PUSH2 0x1379 JUMP JUMPDEST JUMPDEST PUSH0 PUSH2 0x15B5 DUP5 DUP3 DUP6 ADD PUSH2 0x13A0 JUMP JUMPDEST SWAP2 POP POP SWAP3 SWAP2 POP POP JUMP JUMPDEST PUSH0 DUP2 MLOAD SWAP1 POP SWAP2 SWAP1 POP JUMP JUMPDEST PUSH0 DUP3 DUP3 MSTORE PUSH1 0x20 DUP3 ADD SWAP1 POP SWAP3 SWAP2 POP POP JUMP JUMPDEST PUSH0 JUMPDEST DUP4 DUP2 LT ISZERO PUSH2 0x15F5 JUMPI DUP1 DUP3 ADD MLOAD DUP2 DUP5 ADD MSTORE PUSH1 0x20 DUP2 ADD SWAP1 POP PUSH2 0x15DA JUMP JUMPDEST PUSH0 DUP5 DUP5 ADD MSTORE POP POP POP POP JUMP JUMPDEST PUSH0 PUSH1 0x1F NOT PUSH1 0x1F DUP4 ADD AND SWAP1 POP SWAP2 SWAP1 POP JUMP JUMPDEST PUSH0 PUSH2 0x161A DUP3 PUSH2 0x15BE JUMP JUMPDEST PUSH2 0x1624 DUP2 DUP6 PUSH2 0x15C8 JUMP JUMPDEST SWAP4 POP PUSH2 0x1634 DUP2 DUP6 PUSH1 0x20 DUP7 ADD PUSH2 0x15D8 JUMP JUMPDEST PUSH2 0x163D DUP2 PUSH2 0x1600 JUMP JUMPDEST DUP5 ADD SWAP2 POP POP SWAP3 SWAP2 POP POP JUMP JUMPDEST PUSH2 0x1651 DUP2 PUSH2 0x13B4 JUMP JUMPDEST DUP3 MSTORE POP POP JUMP JUMPDEST PUSH0 PUSH1 0xC0 DUP3 ADD SWAP1 POP DUP2 DUP2 SUB PUSH0 DUP4 ADD MSTORE PUSH2 0x166F DUP2 DUP10 PUSH2 0x1610 JUMP JUMPDEST SWAP1 POP PUSH2 0x167E PUSH1 0x20 DUP4 ADD DUP9 PUSH2 0x1428 JUMP JUMPDEST PUSH2 0x168B PUSH1 0x40 DUP4 ADD DUP8 PUSH2 0x14F3 JUMP JUMPDEST PUSH2 0x1698 PUSH1 0x60 DUP4 ADD DUP7 PUSH2 0x1648 JUMP JUMPDEST PUSH2 0x16A5 PUSH1 0x80 DUP4 ADD DUP6 PUSH2 0x1428 JUMP JUMPDEST PUSH2 0x16B2 PUSH1 0xA0 DUP4 ADD DUP5 PUSH2 0x14F3 JUMP JUMPDEST SWAP8 SWAP7 POP POP POP POP POP POP POP JUMP JUMPDEST PUSH0 DUP2 MLOAD SWAP1 POP SWAP2 SWAP1 POP JUMP JUMPDEST PUSH0 DUP3 DUP3 MSTORE PUSH1 0x20 DUP3 ADD SWAP1 POP SWAP3 SWAP2 POP POP JUMP JUMPDEST PUSH0 DUP2 SWAP1 POP PUSH1 0x20 DUP3 ADD SWAP1 POP SWAP2 SWAP1 POP JUMP JUMPDEST PUSH0 DUP3 DUP3 MSTORE PUSH1 0x20 DUP3 ADD SWAP1 POP SWAP3 SWAP2 POP POP JUMP JUMPDEST PUSH0 PUSH2 0x1700 DUP3 PUSH2 0x15BE JUMP JUMPDEST PUSH2 0x170A DUP2 DUP6 PUSH2 0x16E6 JUMP JUMPDEST SWAP4 POP PUSH2 0x171A DUP2 DUP6 PUSH1 0x20 DUP7 ADD PUSH2 0x15D8 JUMP JUMPDEST PUSH2 0x1723 DUP2 PUSH2 0x1600 JUMP JUMPDEST DUP5 ADD SWAP2 POP POP SWAP3 SWAP2 POP POP JUMP JUMPDEST PUSH0 PUSH2 0x1739 DUP4 DUP4 PUSH2 0x16F6 JUMP JUMPDEST SWAP1 POP SWAP3 SWAP2 POP POP JUMP JUMPDEST PUSH0 PUSH1 0x20 DUP3 ADD SWAP1 POP SWAP2 SWAP1 POP JUMP JUMPDEST PUSH0 PUSH2 0x1757 DUP3 PUSH2 0x16BD JUMP JUMPDEST PUSH2 0x1761 DUP2 DUP6 PUSH2 0x16C7 JUMP JUMPDEST SWAP4 POP DUP4 PUSH1 0x20 DUP3 MUL DUP6 ADD PUSH2 0x1773 DUP6 PUSH2 0x16D7 JUMP JUMPDEST DUP1 PUSH0 JUMPDEST DUP6 DUP2 LT ISZERO PUSH2 0x17AE JUMPI DUP5 DUP5 SUB DUP10 MSTORE DUP2 MLOAD PUSH2 0x178F DUP6 DUP3 PUSH2 0x172E JUMP JUMPDEST SWAP5 POP PUSH2 0x179A DUP4 PUSH2 0x1741 JUMP JUMPDEST SWAP3 POP PUSH1 0x20 DUP11 ADD SWAP10 POP POP PUSH1 0x1 DUP2 ADD SWAP1 POP PUSH2 0x1776 JUMP JUMPDEST POP DUP3 SWAP8 POP DUP8 SWAP6 POP POP POP POP POP POP SWAP3 SWAP2 POP POP JUMP JUMPDEST PUSH0 PUSH1 0xC0 DUP3 ADD SWAP1 POP DUP2 DUP2 SUB PUSH0 DUP4 ADD MSTORE PUSH2 0x17D8 DUP2 DUP10 PUSH2 0x1610 JUMP JUMPDEST SWAP1 POP DUP2 DUP2 SUB PUSH1 0x20 DUP4 ADD MSTORE PUSH2 0x17EC DUP2 DUP9 PUSH2 0x174D JUMP JUMPDEST SWAP1 POP PUSH2 0x17FB PUSH1 0x40 DUP4 ADD DUP8 PUSH2 0x1428 JUMP JUMPDEST PUSH2 0x1808 PUSH1 0x60 DUP4 ADD DUP7 PUSH2 0x14F3 JUMP JUMPDEST PUSH2 0x1815 PUSH1 0x80 DUP4 ADD DUP6 PUSH2 0x1648 JUMP JUMPDEST PUSH2 0x1822 PUSH1 0xA0 DUP4 ADD DUP5 PUSH2 0x1428 JUMP JUMPDEST SWAP8 SWAP7 POP POP POP POP POP POP POP JUMP JUMPDEST PUSH0 DUP1 REVERT JUMPDEST PUSH0 DUP1 REVERT JUMPDEST PUSH0 DUP1 REVERT JUMPDEST PUSH0 DUP1 DUP4 PUSH1 0x1F DUP5 ADD SLT PUSH2 0x184E JUMPI PUSH2 0x184D PUSH2 0x182D JUMP JUMPDEST JUMPDEST DUP3 CALLDATALOAD SWAP1 POP PUSH8 0xFFFFFFFFFFFFFFFF DUP2 GT ISZERO PUSH2 0x186B JUMPI PUSH2 0x186A PUSH2 0x1831 JUMP JUMPDEST JUMPDEST PUSH1 0x20 DUP4 ADD SWAP2 POP DUP4 PUSH1 0x1 DUP3 MUL DUP4 ADD GT ISZERO PUSH2 0x1887 JUMPI PUSH2 0x1886 PUSH2 0x1835 JUMP JUMPDEST JUMPDEST SWAP3 POP SWAP3 SWAP1 POP JUMP JUMPDEST PUSH0 DUP1 DUP4 PUSH1 0x1F DUP5 ADD SLT PUSH2 0x18A3 JUMPI PUSH2 0x18A2 PUSH2 0x182D JUMP JUMPDEST JUMPDEST DUP3 CALLDATALOAD SWAP1 POP PUSH8 0xFFFFFFFFFFFFFFFF DUP2 GT ISZERO PUSH2 0x18C0 JUMPI PUSH2 0x18BF PUSH2 0x1831 JUMP JUMPDEST JUMPDEST PUSH1 0x20 DUP4 ADD SWAP2 POP DUP4 PUSH1 0x20 DUP3 MUL DUP4 ADD GT ISZERO PUSH2 0x18DC JUMPI PUSH2 0x18DB PUSH2 0x1835 JUMP JUMPDEST JUMPDEST SWAP3 POP SWAP3 SWAP1 POP JUMP JUMPDEST PUSH0 DUP1 PUSH0 DUP1 PUSH0 PUSH1 0x60 DUP7 DUP9 SUB SLT ISZERO PUSH2 0x18FC JUMPI PUSH2 0x18FB PUSH2 0x1379 JUMP JUMPDEST JUMPDEST PUSH0 DUP7 ADD CALLDATALOAD PUSH8 0xFFFFFFFFFFFFFFFF DUP2 GT ISZERO PUSH2 0x1919 JUMPI PUSH2 0x1918 PUSH2 0x137D JUMP JUMPDEST JUMPDEST PUSH2 0x1925 DUP9 DUP3 DUP10 ADD PUSH2 0x1839 JUMP JUMPDEST SWAP6 POP SWAP6 POP POP PUSH1 0x20 DUP7 ADD CALLDATALOAD PUSH8 0xFFFFFFFFFFFFFFFF DUP2 GT ISZERO PUSH2 0x1948 JUMPI PUSH2 0x1947 PUSH2 0x137D JUMP JUMPDEST JUMPDEST PUSH2 0x1954 DUP9 DUP3 DUP10 ADD PUSH2 0x188E JUMP JUMPDEST SWAP4 POP SWAP4 POP POP PUSH1 0x40 PUSH2 0x1967 DUP9 DUP3 DUP10 ADD PUSH2 0x13A0 JUMP JUMPDEST SWAP2 POP POP SWAP3 SWAP6 POP SWAP3 SWAP6 SWAP1 SWAP4 POP JUMP JUMPDEST PUSH32 0x4D61726B657420646F6573206E6F742065786973740000000000000000000000 PUSH0 DUP3 ADD MSTORE POP JUMP JUMPDEST PUSH0 PUSH2 0x19A8 PUSH1 0x15 DUP4 PUSH2 0x15C8 JUMP JUMPDEST SWAP2 POP PUSH2 0x19B3 DUP3 PUSH2 0x1974 JUMP JUMPDEST PUSH1 0x20 DUP3 ADD SWAP1 POP SWAP2 SWAP1 POP JUMP JUMPDEST PUSH0 PUSH1 0x20 DUP3 ADD SWAP1 POP DUP2 DUP2 SUB PUSH0 DUP4 ADD MSTORE PUSH2 0x19D5 DUP2 PUSH2 0x199C JUMP JUMPDEST SWAP1 POP SWAP2 SWAP1 POP JUMP JUMPDEST PUSH32 0x4D61726B657420616C7265616479207265736F6C766564000000000000000000 PUSH0 DUP3 ADD MSTORE POP JUMP JUMPDEST PUSH0 PUSH2 0x1A10 PUSH1 0x17 DUP4 PUSH2 0x15C8 JUMP JUMPDEST SWAP2 POP PUSH2 0x1A1B DUP3 PUSH2 0x19DC JUMP JUMPDEST PUSH1 0x20 DUP3 ADD SWAP1 POP SWAP2 SWAP1 POP JUMP JUMPDEST PUSH0 PUSH1 0x20 DUP3 ADD SWAP1 POP DUP2 DUP2 SUB PUSH0 DUP4 ADD MSTORE PUSH2 0x1A3D DUP2 PUSH2 0x1A04 JUMP JUMPDEST SWAP1 POP SWAP2 SWAP1 POP JUMP JUMPDEST PUSH32 0x4D61726B657420766F74696E672068617320656E646564000000000000000000 PUSH0 DUP3 ADD MSTORE POP JUMP JUMPDEST PUSH0 PUSH2 0x1A78 PUSH1 0x17 DUP4 PUSH2 0x15C8 JUMP JUMPDEST SWAP2 POP PUSH2 0x1A83 DUP3 PUSH2 0x1A44 JUMP JUMPDEST PUSH1 0x20 DUP3 ADD SWAP1 POP SWAP2 SWAP1 POP JUMP JUMPDEST PUSH0 PUSH1 0x20 DUP3 ADD SWAP1 POP DUP2 DUP2 SUB PUSH0 DUP4 ADD MSTORE PUSH2 0x1AA5 DUP2 PUSH2 0x1A6C JUMP JUMPDEST SWAP1 POP SWAP2 SWAP1 POP JUMP JUMPDEST PUSH32 0x496E76616C6964206F7074696F6E000000000000000000000000000000000000 PUSH0 DUP3 ADD MSTORE POP JUMP JUMPDEST PUSH0 PUSH2 0x1AE0 PUSH1 0xE DUP4 PUSH2 0x15C8 JUMP JUMPDEST SWAP2 POP PUSH2 0x1AEB DUP3 PUSH2 0x1AAC JUMP JUMPDEST PUSH1 0x20 DUP3 ADD SWAP1 POP SWAP2 SWAP1 POP JUMP JUMPDEST PUSH0 PUSH1 0x20 DUP3 ADD SWAP1 POP DUP2 DUP2 SUB PUSH0 DUP4 ADD MSTORE PUSH2 0x1B0D DUP2 PUSH2 0x1AD4 JUMP JUMPDEST SWAP1 POP SWAP2 SWAP1 POP JUMP JUMPDEST PUSH32 0x4D757374207374616B6520736F6D652045544800000000000000000000000000 PUSH0 DUP3 ADD MSTORE POP JUMP JUMPDEST PUSH0 PUSH2 0x1B48 PUSH1 0x13 DUP4 PUSH2 0x15C8 JUMP JUMPDEST SWAP2 POP PUSH2 0x1B53 DUP3 PUSH2 0x1B14 JUMP JUMPDEST PUSH1 0x20 DUP3 ADD SWAP1 POP SWAP2 SWAP1 POP JUMP JUMPDEST PUSH0 PUSH1 0x20 DUP3 ADD SWAP1 POP DUP2 DUP2 SUB PUSH0 DUP4 ADD MSTORE PUSH2 0x1B75 DUP2 PUSH2 0x1B3C JUMP JUMPDEST SWAP1 POP SWAP2 SWAP1 POP JUMP JUMPDEST PUSH32 0x4E487B7100000000000000000000000000000000000000000000000000000000 PUSH0 MSTORE PUSH1 0x11 PUSH1 0x4 MSTORE PUSH1 0x24 PUSH0 REVERT JUMPDEST PUSH0 PUSH2 0x1BB3 DUP3 PUSH2 0x1381 JUMP JUMPDEST SWAP2 POP PUSH2 0x1BBE DUP4 PUSH2 0x1381 JUMP JUMPDEST SWAP3 POP DUP3 DUP3 ADD SWAP1 POP DUP1 DUP3 GT ISZERO PUSH2 0x1BD6 JUMPI PUSH2 0x1BD5 PUSH2 0x1B7C JUMP JUMPDEST JUMPDEST SWAP3 SWAP2 POP POP JUMP JUMPDEST PUSH0 PUSH1 0x40 DUP3 ADD SWAP1 POP PUSH2 0x1BEF PUSH0 DUP4 ADD DUP6 PUSH2 0x1648 JUMP JUMPDEST PUSH2 0x1BFC PUSH1 0x20 DUP4 ADD DUP5 PUSH2 0x1428 JUMP JUMPDEST SWAP4 SWAP3 POP POP POP JUMP JUMPDEST PUSH32 0x4D61726B6574206E6F74207265736F6C76656420796574000000000000000000 PUSH0 DUP3 ADD MSTORE POP JUMP JUMPDEST PUSH0 PUSH2 0x1C37 PUSH1 0x17 DUP4 PUSH2 0x15C8 JUMP JUMPDEST SWAP2 POP PUSH2 0x1C42 DUP3 PUSH2 0x1C03 JUMP JUMPDEST PUSH1 0x20 DUP3 ADD SWAP1 POP SWAP2 SWAP1 POP JUMP JUMPDEST PUSH0 PUSH1 0x20 DUP3 ADD SWAP1 POP DUP2 DUP2 SUB PUSH0 DUP4 ADD MSTORE PUSH2 0x1C64 DUP2 PUSH2 0x1C2B JUMP JUMPDEST SWAP1 POP SWAP2 SWAP1 POP JUMP JUMPDEST PUSH32 0x416C726561647920636C61696D65640000000000000000000000000000000000 PUSH0 DUP3 ADD MSTORE POP JUMP JUMPDEST PUSH0 PUSH2 0x1C9F PUSH1 0xF DUP4 PUSH2 0x15C8 JUMP JUMPDEST SWAP2 POP PUSH2 0x1CAA DUP3 PUSH2 0x1C6B JUMP JUMPDEST PUSH1 0x20 DUP3 ADD SWAP1 POP SWAP2 SWAP1 POP JUMP JUMPDEST PUSH0 PUSH1 0x20 DUP3 ADD SWAP1 POP DUP2 DUP2 SUB PUSH0 DUP4 ADD MSTORE PUSH2 0x1CCC DUP2 PUSH2 0x1C93 JUMP JUMPDEST SWAP1 POP SWAP2 SWAP1 POP JUMP JUMPDEST PUSH32 0x4E6F2077696E6E696E67207374616B6500000000000000000000000000000000 PUSH0 DUP3 ADD MSTORE POP JUMP JUMPDEST PUSH0 PUSH2 0x1D07 PUSH1 0x10 DUP4 PUSH2 0x15C8 JUMP JUMPDEST SWAP2 POP PUSH2 0x1D12 DUP3 PUSH2 0x1CD3 JUMP JUMPDEST PUSH1 0x20 DUP3 ADD SWAP1 POP SWAP2 SWAP1 POP JUMP JUMPDEST PUSH0 PUSH1 0x20 DUP3 ADD SWAP1 POP DUP2 DUP2 SUB PUSH0 DUP4 ADD MSTORE PUSH2 0x1D34 DUP2 PUSH2 0x1CFB JUMP JUMPDEST SWAP1 POP SWAP2 SWAP1 POP JUMP JUMPDEST PUSH0 PUSH2 0x1D45 DUP3 PUSH2 0x1381 JUMP JUMPDEST SWAP2 POP PUSH2 0x1D50 DUP4 PUSH2 0x1381 JUMP JUMPDEST SWAP3 POP DUP3 DUP3 MUL PUSH2 0x1D5E DUP2 PUSH2 0x1381 JUMP JUMPDEST SWAP2 POP DUP3 DUP3 DIV DUP5 EQ DUP4 ISZERO OR PUSH2 0x1D75 JUMPI PUSH2 0x1D74 PUSH2 0x1B7C JUMP JUMPDEST JUMPDEST POP SWAP3 SWAP2 POP POP JUMP JUMPDEST PUSH32 0x4E487B7100000000000000000000000000000000000000000000000000000000 PUSH0 MSTORE PUSH1 0x12 PUSH1 0x4 MSTORE PUSH1 0x24 PUSH0 REVERT JUMPDEST PUSH0 PUSH2 0x1DB3 DUP3 PUSH2 0x1381 JUMP JUMPDEST SWAP2 POP PUSH2 0x1DBE DUP4 PUSH2 0x1381 JUMP JUMPDEST SWAP3 POP DUP3 PUSH2 0x1DCE JUMPI PUSH2 0x1DCD PUSH2 0x1D7C JUMP JUMPDEST JUMPDEST DUP3 DUP3 DIV SWAP1 POP SWAP3 SWAP2 POP POP JUMP JUMPDEST PUSH0 DUP2 SWAP1 POP SWAP3 SWAP2 POP POP JUMP JUMPDEST POP JUMP JUMPDEST PUSH0 PUSH2 0x1DF1 PUSH0 DUP4 PUSH2 0x1DD9 JUMP JUMPDEST SWAP2 POP PUSH2 0x1DFC DUP3 PUSH2 0x1DE3 JUMP JUMPDEST PUSH0 DUP3 ADD SWAP1 POP SWAP2 SWAP1 POP JUMP JUMPDEST PUSH0 PUSH2 0x1E10 DUP3 PUSH2 0x1DE6 JUMP JUMPDEST SWAP2 POP DUP2 SWAP1 POP SWAP2 SWAP1 POP JUMP JUMPDEST PUSH32 0x5472616E73666572206661696C65640000000000000000000000000000000000 PUSH0 DUP3 ADD MSTORE POP JUMP JUMPDEST PUSH0 PUSH2 0x1E4E PUSH1 0xF DUP4 PUSH2 0x15C8 JUMP JUMPDEST SWAP2 POP PUSH2 0x1E59 DUP3 PUSH2 0x1E1A JUMP JUMPDEST PUSH1 0x20 DUP3 ADD SWAP1 POP SWAP2 SWAP1 POP JUMP JUMPDEST PUSH0 PUSH1 0x20 DUP3 ADD SWAP1 POP DUP2 DUP2 SUB PUSH0 DUP4 ADD MSTORE PUSH2 0x1E7B DUP2 PUSH2 0x1E42 JUMP JUMPDEST SWAP1 POP SWAP2 SWAP1 POP JUMP JUMPDEST PUSH32 0x4E487B7100000000000000000000000000000000000000000000000000000000 PUSH0 MSTORE PUSH1 0x22 PUSH1 0x4 MSTORE PUSH1 0x24 PUSH0 REVERT JUMPDEST PUSH0 PUSH1 0x2 DUP3 DIV SWAP1 POP PUSH1 0x1 DUP3 AND DUP1 PUSH2 0x1EC6 JUMPI PUSH1 0x7F DUP3 AND SWAP2 POP JUMPDEST PUSH1 0x20 DUP3 LT DUP2 SUB PUSH2 0x1ED9 JUMPI PUSH2 0x1ED8 PUSH2 0x1E82 JUMP JUMPDEST JUMPDEST POP SWAP2 SWAP1 POP JUMP JUMPDEST PUSH32 0x4E6F74206F776E65720000000000000000000000000000000000000000000000 PUSH0 DUP3 ADD MSTORE POP JUMP JUMPDEST PUSH0 PUSH2 0x1F13 PUSH1 0x9 DUP4 PUSH2 0x15C8 JUMP JUMPDEST SWAP2 POP PUSH2 0x1F1E DUP3 PUSH2 0x1EDF JUMP JUMPDEST PUSH1 0x20 DUP3 ADD SWAP1 POP SWAP2 SWAP1 POP JUMP JUMPDEST PUSH0 PUSH1 0x20 DUP3 ADD SWAP1 POP DUP2 DUP2 SUB PUSH0 DUP4 ADD MSTORE PUSH2 0x1F40 DUP2 PUSH2 0x1F07 JUMP JUMPDEST SWAP1 POP SWAP2 SWAP1 POP JUMP JUMPDEST PUSH32 0x416C7265616479207265736F6C76656400000000000000000000000000000000 PUSH0 DUP3 ADD MSTORE POP JUMP JUMPDEST PUSH0 PUSH2 0x1F7B PUSH1 0x10 DUP4 PUSH2 0x15C8 JUMP JUMPDEST SWAP2 POP PUSH2 0x1F86 DUP3 PUSH2 0x1F47 JUMP JUMPDEST PUSH1 0x20 DUP3 ADD SWAP1 POP SWAP2 SWAP1 POP JUMP JUMPDEST PUSH0 PUSH1 0x20 DUP3 ADD SWAP1 POP DUP2 DUP2 SUB PUSH0 DUP4 ADD MSTORE PUSH2 0x1FA8 DUP2 PUSH2 0x1F6F JUMP JUMPDEST SWAP1 POP SWAP2 SWAP1 POP JUMP JUMPDEST PUSH32 0x496E76616C69642077696E6E696E67206F7074696F6E00000000000000000000 PUSH0 DUP3 ADD MSTORE POP JUMP JUMPDEST PUSH0 PUSH2 0x1FE3 PUSH1 0x16 DUP4 PUSH2 0x15C8 JUMP JUMPDEST SWAP2 POP PUSH2 0x1FEE DUP3 PUSH2 0x1FAF JUMP JUMPDEST PUSH1 0x20 DUP3 ADD SWAP1 POP SWAP2 SWAP1 POP JUMP JUMPDEST PUSH0 PUSH1 0x20 DUP3 ADD SWAP1 POP DUP2 DUP2 SUB PUSH0 DUP4 ADD MSTORE PUSH2 0x2010 DUP2 PUSH2 0x1FD7 JUMP JUMPDEST SWAP1 POP SWAP2 SWAP1 POP JUMP JUMPDEST PUSH0 PUSH1 0x20 DUP3 ADD SWAP1 POP PUSH2 0x202A PUSH0 DUP4 ADD DUP5 PUSH2 0x1648 JUMP JUMPDEST SWAP3 SWAP2 POP POP JUMP JUMPDEST PUSH32 0x4E65656420322D3130206F7074696F6E73000000000000000000000000000000 PUSH0 DUP3 ADD MSTORE POP JUMP JUMPDEST PUSH0 PUSH2 0x2064 PUSH1 0x11 DUP4 PUSH2 0x15C8 JUMP JUMPDEST SWAP2 POP PUSH2 0x206F DUP3 PUSH2 0x2030 JUMP JUMPDEST PUSH1 0x20 DUP3 ADD SWAP1 POP SWAP2 SWAP1 POP JUMP JUMPDEST PUSH0 PUSH1 0x20 DUP3 ADD SWAP1 POP DUP2 DUP2 SUB PUSH0 DUP4 ADD MSTORE PUSH2 0x2091 DUP2 PUSH2 0x2058 JUMP JUMPDEST SWAP1 POP SWAP2 SWAP1 POP JUMP JUMPDEST PUSH32 0x446561646C696E65206D75737420626520696E20746865206675747572650000 PUSH0 DUP3 ADD MSTORE POP JUMP JUMPDEST PUSH0 PUSH2 0x20CC PUSH1 0x1E DUP4 PUSH2 0x15C8 JUMP JUMPDEST SWAP2 POP PUSH2 0x20D7 DUP3 PUSH2 0x2098 JUMP JUMPDEST PUSH1 0x20 DUP3 ADD SWAP1 POP SWAP2 SWAP1 POP JUMP JUMPDEST PUSH0 PUSH1 0x20 DUP3 ADD SWAP1 POP DUP2 DUP2 SUB PUSH0 DUP4 ADD MSTORE PUSH2 0x20F9 DUP2 PUSH2 0x20C0 JUMP JUMPDEST SWAP1 POP SWAP2 SWAP1 POP JUMP JUMPDEST PUSH0 PUSH2 0x210A DUP3 PUSH2 0x1381 JUMP JUMPDEST SWAP2 POP PUSH32 0xFFFFFFFFFFFFFFFFFFFFFFFFFFFFFFFFFFFFFFFFFFFFFFFFFFFFFFFFFFFFFFFF DUP3 SUB PUSH2 0x213C JUMPI PUSH2 0x213B PUSH2 0x1B7C JUMP JUMPDEST JUMPDEST PUSH1 0x1 DUP3 ADD SWAP1 POP SWAP2 SWAP1 POP JUMP JUMPDEST PUSH0 DUP3 SWAP1 POP SWAP3 SWAP2 POP POP JUMP JUMPDEST PUSH32 0x4E487B7100000000000000000000000000000000000000000000000000000000 PUSH0 MSTORE PUSH1 0x41 PUSH1 0x4 MSTORE PUSH1 0x24 PUSH0 REVERT JUMPDEST PUSH0 DUP2 SWAP1 POP DUP2 PUSH0 MSTORE PUSH1 0x20 PUSH0 KECCAK256 SWAP1 POP SWAP2 SWAP1 POP JUMP JUMPDEST PUSH0 PUSH1 0x20 PUSH1 0x1F DUP4 ADD DIV SWAP1 POP SWAP2 SWAP1 POP JUMP JUMPDEST PUSH0 DUP3 DUP3 SHL SWAP1 POP SWAP3 SWAP2 POP POP JUMP JUMPDEST PUSH0 PUSH1 0x8 DUP4 MUL PUSH2 0x21DA PUSH32 0xFFFFFFFFFFFFFFFFFFFFFFFFFFFFFFFFFFFFFFFFFFFFFFFFFFFFFFFFFFFFFFFF DUP3 PUSH2 0x219F JUMP JUMPDEST PUSH2 0x21E4 DUP7 DUP4 PUSH2 0x219F JUMP JUMPDEST SWAP6 POP DUP1 NOT DUP5 AND SWAP4 POP DUP1 DUP7 AND DUP5 OR SWAP3 POP POP POP SWAP4 SWAP3 POP POP POP JUMP JUMPDEST PUSH0 DUP2 SWAP1 POP SWAP2 SWAP1 POP JUMP JUMPDEST PUSH0 PUSH2 0x221F PUSH2 0x221A PUSH2 0x2215 DUP5 PUSH2 0x1381 JUMP JUMPDEST PUSH2 0x21FC JUMP JUMPDEST PUSH2 0x1381 JUMP JUMPDEST SWAP1 POP SWAP2 SWAP1 POP JUMP JUMPDEST PUSH0 DUP2 SWAP1 POP SWAP2 SWAP1 POP JUMP JUMPDEST PUSH2 0x2238 DUP4 PUSH2 0x2205 JUMP JUMPDEST PUSH2 0x224C PUSH2 0x2244 DUP3 PUSH2 0x2226 JUMP JUMPDEST DUP5 DUP5 SLOAD PUSH2 0x21AB JUMP JUMPDEST DUP3 SSTORE POP POP POP POP JUMP JUMPDEST PUSH0 SWAP1 JUMP JUMPDEST PUSH2 0x2260 PUSH2 0x2254 JUMP JUMPDEST PUSH2 0x226B DUP2 DUP5 DUP5 PUSH2 0x222F JUMP JUMPDEST POP POP POP JUMP JUMPDEST JUMPDEST DUP2 DUP2 LT ISZERO PUSH2 0x228E JUMPI PUSH2 0x2283 PUSH0 DUP3 PUSH2 0x2258 JUMP JUMPDEST PUSH1 0x1 DUP2 ADD SWAP1 POP PUSH2 0x2271 JUMP JUMPDEST POP POP JUMP JUMPDEST PUSH1 0x1F DUP3 GT ISZERO PUSH2 0x22D3 JUMPI PUSH2 0x22A4 DUP2 PUSH2 0x217E JUMP JUMPDEST PUSH2 0x22AD DUP5 PUSH2 0x2190 JUMP JUMPDEST DUP2 ADD PUSH1 0x20 DUP6 LT ISZERO PUSH2 0x22BC JUMPI DUP2 SWAP1 POP JUMPDEST PUSH2 0x22D0 PUSH2 0x22C8 DUP6 PUSH2 0x2190 JUMP JUMPDEST DUP4 ADD DUP3 PUSH2 0x2270 JUMP JUMPDEST POP POP JUMPDEST POP POP POP JUMP JUMPDEST PUSH0 DUP3 DUP3 SHR SWAP1 POP SWAP3 SWAP2 POP POP JUMP JUMPDEST PUSH0 PUSH2 0x22F3 PUSH0 NOT DUP5 PUSH1 0x8 MUL PUSH2 0x22D8 JUMP JUMPDEST NOT DUP1 DUP4 AND SWAP2 POP POP SWAP3 SWAP2 POP POP JUMP JUMPDEST PUSH0 PUSH2 0x230B DUP4 DUP4 PUSH2 0x22E4 JUMP JUMPDEST SWAP2 POP DUP3 PUSH1 0x2 MUL DUP3 OR SWAP1 POP SWAP3 SWAP2 POP POP JUMP JUMPDEST PUSH2 0x2325 DUP4 DUP4 PUSH2 0x2147 JUMP JUMPDEST PUSH8 0xFFFFFFFFFFFFFFFF DUP2 GT ISZERO PUSH2 0x233E JUMPI PUSH2 0x233D PUSH2 0x2151 JUMP JUMPDEST JUMPDEST PUSH2 0x2348 DUP3 SLOAD PUSH2 0x1EAF JUMP JUMPDEST PUSH2 0x2353 DUP3 DUP3 DUP6 PUSH2 0x2292 JUMP JUMPDEST PUSH0 PUSH1 0x1F DUP4 GT PUSH1 0x1 DUP2 EQ PUSH2 0x2380 JUMPI PUSH0 DUP5 ISZERO PUSH2 0x236E JUMPI DUP3 DUP8 ADD CALLDATALOAD SWAP1 POP JUMPDEST PUSH2 0x2378 DUP6 DUP3 PUSH2 0x2300 JUMP JUMPDEST DUP7 SSTORE POP PUSH2 0x23DF JUMP JUMPDEST PUSH1 0x1F NOT DUP5 AND PUSH2 0x238E DUP7 PUSH2 0x217E JUMP JUMPDEST PUSH0 JUMPDEST DUP3 DUP2 LT ISZERO PUSH2 0x23B5 JUMPI DUP5 DUP10 ADD CALLDATALOAD DUP3 SSTORE PUSH1 0x1 DUP3 ADD SWAP2 POP PUSH1 0x20 DUP6 ADD SWAP5 POP PUSH1 0x20 DUP2 ADD SWAP1 POP PUSH2 0x2390 JUMP JUMPDEST DUP7 DUP4 LT ISZERO PUSH2 0x23D2 JUMPI DUP5 DUP10 ADD CALLDATALOAD PUSH2 0x23CE PUSH1 0x1F DUP10 AND DUP3 PUSH2 0x22E4 JUMP JUMPDEST DUP4 SSTORE POP JUMPDEST PUSH1 0x1 PUSH1 0x2 DUP9 MUL ADD DUP9 SSTORE POP POP POP JUMPDEST POP POP POP POP POP POP POP JUMP JUMPDEST PUSH32 0x4E487B7100000000000000000000000000000000000000000000000000000000 PUSH0 MSTORE PUSH1 0x32 PUSH1 0x4 MSTORE PUSH1 0x24 PUSH0 REVERT JUMPDEST PUSH0 DUP1 REVERT JUMPDEST PUSH0 DUP1 REVERT JUMPDEST PUSH0 DUP1 REVERT JUMPDEST PUSH0 DUP1 DUP4 CALLDATALOAD PUSH1 0x1 PUSH1 0x20 SUB DUP5 CALLDATASIZE SUB SUB DUP2 SLT PUSH2 0x243D JUMPI PUSH2 0x243C PUSH2 0x2415 JUMP JUMPDEST JUMPDEST DUP1 DUP5 ADD SWAP3 POP DUP3 CALLDATALOAD SWAP2 POP PUSH8 0xFFFFFFFFFFFFFFFF DUP3 GT ISZERO PUSH2 0x245F JUMPI PUSH2 0x245E PUSH2 0x2419 JUMP JUMPDEST JUMPDEST PUSH1 0x20 DUP4 ADD SWAP3 POP PUSH1 0x1 DUP3 MUL CALLDATASIZE SUB DUP4 SGT ISZERO PUSH2 0x247B JUMPI PUSH2 0x247A PUSH2 0x241D JUMP JUMPDEST JUMPDEST POP SWAP3 POP SWAP3 SWAP1 POP JUMP JUMPDEST DUP3 DUP2 DUP4 CALLDATACOPY PUSH0 DUP4 DUP4 ADD MSTORE POP POP POP JUMP JUMPDEST PUSH0 PUSH2 0x249C DUP4 DUP6 PUSH2 0x15C8 JUMP JUMPDEST SWAP4 POP PUSH2 0x24A9 DUP4 DUP6 DUP5 PUSH2 0x2483 JUMP JUMPDEST PUSH2 0x24B2 DUP4 PUSH2 0x1600 JUMP JUMPDEST DUP5 ADD SWAP1 POP SWAP4 SWAP3 POP POP POP JUMP JUMPDEST PUSH0 DUP2 SWAP1 POP SWAP2 SWAP1 POP JUMP JUMPDEST PUSH0 PUSH2 0x24D1 DUP4 DUP6 PUSH2 0x16E6 JUMP JUMPDEST SWAP4 POP PUSH2 0x24DE DUP4 DUP6 DUP5 PUSH2 0x2483 JUMP JUMPDEST PUSH2 0x24E7 DUP4 PUSH2 0x1600 JUMP JUMPDEST DUP5 ADD SWAP1 POP SWAP4 SWAP3 POP POP POP JUMP JUMPDEST PUSH0 PUSH2 0x24FE DUP5 DUP5 DUP5 PUSH2 0x24C6 JUMP JUMPDEST SWAP1 POP SWAP4 SWAP3 POP POP POP JUMP JUMPDEST PUSH0 DUP1 REVERT JUMPDEST PUSH0 DUP1 REVERT JUMPDEST PUSH0 DUP1 REVERT JUMPDEST PUSH0 DUP1 DUP4 CALLDATALOAD PUSH1 0x1 PUSH1 0x20 SUB DUP5 CALLDATASIZE SUB SUB DUP2 SLT PUSH2 0x252F JUMPI PUSH2 0x252E PUSH2 0x250F JUMP JUMPDEST JUMPDEST DUP4 DUP2 ADD SWAP3 POP DUP3 CALLDATALOAD SWAP2 POP PUSH1 0x20 DUP4 ADD SWAP3 POP PUSH8 0xFFFFFFFFFFFFFFFF DUP3 GT ISZERO PUSH2 0x2557 JUMPI PUSH2 0x2556 PUSH2 0x2507 JUMP JUMPDEST JUMPDEST PUSH1 0x1 DUP3 MUL CALLDATASIZE SUB DUP4 SGT ISZERO PUSH2 0x256D JUMPI PUSH2 0x256C PUSH2 0x250B JUMP JUMPDEST JUMPDEST POP SWAP3 POP SWAP3 SWAP1 POP JUMP JUMPDEST PUSH0 PUSH1 0x20 DUP3 ADD SWAP1 POP SWAP2 SWAP1 POP JUMP JUMPDEST PUSH0 PUSH2 0x258C DUP4 DUP6 PUSH2 0x16C7 JUMP JUMPDEST SWAP4 POP DUP4 PUSH1 0x20 DUP5 MUL DUP6 ADD PUSH2 0x259E DUP5 PUSH2 0x24BD JUMP JUMPDEST DUP1 PUSH0 JUMPDEST DUP8 DUP2 LT ISZERO PUSH2 0x25E3 JUMPI DUP5 DUP5 SUB DUP10 MSTORE PUSH2 0x25B8 DUP3 DUP5 PUSH2 0x2513 JUMP JUMPDEST PUSH2 0x25C3 DUP7 DUP3 DUP5 PUSH2 0x24F2 JUMP JUMPDEST SWAP6 POP PUSH2 0x25CE DUP5 PUSH2 0x2575 JUMP JUMPDEST SWAP4 POP PUSH1 0x20 DUP12 ADD SWAP11 POP POP POP PUSH1 0x1 DUP2 ADD SWAP1 POP PUSH2 0x25A1 JUMP JUMPDEST POP DUP3 SWAP8 POP DUP8 SWAP5 POP POP POP POP POP SWAP4 SWAP3 POP POP POP JUMP JUMPDEST PUSH0 PUSH1 0x60 DUP3 ADD SWAP1 POP DUP2 DUP2 SUB PUSH0 DUP4 ADD MSTORE PUSH2 0x260E DUP2 DUP8 DUP10 PUSH2 0x2491 JUMP JUMPDEST SWAP1 POP DUP2 DUP2 SUB PUSH1 0x20 DUP4 ADD MSTORE PUSH2 0x2623 DUP2 DUP6 DUP8 PUSH2 0x2581 JUMP JUMPDEST SWAP1 POP PUSH2 0x2632 PUSH1 0x40 DUP4 ADD DUP5 PUSH2 0x1428 JUMP JUMPDEST SWAP7 SWAP6 POP POP POP POP POP POP JUMP INVALID LOG2 PUSH5 0x6970667358 0x22 SLT KECCAK256 OR 0xF 0xD8 0x1F MOD 0xFB LOG0 0xE9 PUSH1 0x35 PUSH12 0x7D3ED01024D6455D28300CE1 PUSH27 0x4C6B8083761406C464736F6C634300081800330000000000000000 "},"methodIdentifiers":{"claimReward(uint256)":"ae169a50","claimed(uint256,address)":"120aa877","createMarket(string,string[],uint256)":"fbc529cb","getMarket(uint256)":"eb44fdd3","getOptionTotal(uint256,uint8)":"26139735","getUserStake(uint256,uint8,address)":"29108ee0","hasUserClaimed(uint256,address)":"07c7a72d","marketCount()":"ec979082","markets(uint256)":"b1283e77","optionTotals(uint256,uint8)":"0436ee33","owner()":"8da5cb5b","resolveMarket(uint256,uint8)":"df55406e","stakes(uint256,uint8,address)":"2ec6a9ca","vote(uint256,uint8)":"943e8216"}}}}}